:020000040800F2
:10000000008001207D0E0008F10D0008F70D0008AA
:10001000FD0D0008030E0008090E00080000000096
:100020000000000000000000000000000F0E0008AB
:100030001D0E0008000000002B0E0008390E0008FD
:10004000CD0E0008CD0E0008CD0E0008CD0E000824
:10005000CD0E0008CD0E0008CD0E0008CD0E000814
:10006000CD0E0008CD0E0008CD0E0008CD0E000804
:10007000CD0E0008CD0E0008CD0E0008CD0E0008F4
:10008000CD0E0008CD0E0008CD0E000800000000C7
:10009000000000000000000000000000CD0E00087D
:1000A000CD0E0008CD0E0008CD0E0008CD0E0008C4
:1000B000450E0008CD0E0008CD0E0008CD0E00083C
:1000C000CD0E0008CD0E0008CD0E0008CD0E0008A4
:1000D000CD0E0008CD0E0008CD0E00080000000077
:1000E000CD0E0008CD0E0008CD0E00080000000067
:1000F000000000000000000000000000CD0E00081D
:1001000000000000CD0E0008CD0E0008CD0E000846
:1001100000000000000000000000000000000000DF
:10012000CD0E0008CD0E0008CD0E0008CD0E000843
:10013000CD0E0008000000000000000000000000DC
:10014000000000000000000000000000CD0E0008CC
:10015000CD0E0008CD0E0008CD0E0008CD0E000813
:10016000CD0E0008CD0E00080000000000000000C9
:10017000000000000000000000000000000000007F
:1001800000000000CD0E000800000000000000008C
:04019000CD0E000888
:1001940010B5054C237833B9044B13B10448AFF3BD
:1001A40000800123237010BD140000200000000013
:1001B400EC26000808B5034B1BB103490348AFF311
:1001C400008008BD0000000018000020EC26000894
:1001D40010F8012B11F8013B012A28BF9A42F7D0ED
:1001E400D01A704753B94AB9002908BF00281CBF68
:1001F4004FF0FF314FF0FF3000F074B9ADF1080C4F
:100204006DE904CE00F006F8DDF804E0DDE9022330
:1002140004B070472DE9F047089D04468E46002B34
:100224004DD18A42944669D9B2FA82F252B101FAA6
:1002340002F3C2F1200120FA01F10CFA02FC41EAB6
:10024400030E94404FEA1C48210CBEFBF8F61FFA3B
:100254008CF708FB16E341EA034306FB07F19942D6
:100264000AD91CEB030306F1FF3080F01F81994289
:1002740040F21C81023E63445B1AA4B2B3FBF8F063
:1002840008FB103344EA034400FB07F7A7420AD9EA
:100294001CEB040400F1FF3380F00A81A74240F212
:1002A40007816444023840EA0640E41B00261DB17D
:1002B400D4400023C5E900433146BDE8F0878B42B2
:1002C40009D9002D00F0EF800026C5E90001304671
:1002D4003146BDE8F087B3FA83F6002E4AD18B424B
:1002E40002D3824200F2F980841A61EB03030120F5
:1002F4009E46002DE0D0C5E9004EDDE702B9FFDEE1
:10030400B2FA82F2002A40F09280A1EB0C014FEA8B
:100314001C471FFA8CFE0126200CB1FBF7F307FBE8
:10032400131140EA01410EFB03F0884208D91CEB8B
:10033400010103F1FF3802D2884200F2CB80434628
:10034400091AA4B2B1FBF7F007FB101144EA014407
:100354000EFB00FEA64508D91CEB040400F1FF3196
:1003640002D2A64500F2BB800846A4EB0E0440EA84
:1003740003409CE7C6F12007B34022FA07FC4CEA8D
:10038400030C20FA07F401FA06F31C43F9404FEA80
:100394001C4900FA06F3B1FBF9F8200C1FFA8CFE95
:1003A40009FB181140EA014108FB0EF0884202FAE9
:1003B40006F20BD91CEB010108F1FF3A80F08880AA
:1003C400884240F28580A8F102086144091AA4B267
:1003D400B1FBF9F009FB101144EA014100FB0EFEE8
:1003E4008E4508D91CEB010100F1FF346CD28E4517
:1003F4006AD90238614440EA0840A0FB0294A1EBA8
:100404000E01A142C846A64656D353D05DB1B3EB04
:10041400080261EB0E0101FA07F722FA06F3F14034
:100424001F43C5E9007100263146BDE8F087C2F1DB
:100434002003D8400CFA02FC21FA03F39140014353
:100444004FEA1C471FFA8CFEB3FBF7F007FB10368C
:100454000B0C43EA064300FB0EF69E4204FA02F438
:1004640008D91CEB030300F1FF382FD29E422DD98B
:10047400023863449B1B89B2B3FBF7F607FB1633C0
:1004840041EA034106FB0EF38B4208D91CEB010140
:1004940006F1FF3816D28B4214D9023E6144C91AC0
:1004A40046EA004638E72E46284605E70646E3E6D0
:1004B4001846F8E64B45A9D2B9EB020864EB0C0EDA
:1004C4000138A3E74646EAE7204694E74046D1E7E9
:1004D400D0467BE7023B614432E7304609E7644497
:1004E400023842E7704700BF80B584B000AF0346CE
:1004F400FB800122F0212C4801F02CF8002210216D
:10050400294801F027F8FB881946274801F00AF822
:100514000346002B01D10123FB6001221021224854
:1005240001F018F8002220211F4801F013F8FB887D
:1005340019461D4800F0F6FF0346002B01D10223A3
:10054400FB6001222021184801F004F80022402118
:10055400154800F0FFFFFB881946134800F0E2FF3E
:100564000346002B01D10323FB60012240210E48E6
:1005740000F0F0FF002280210B4800F0EBFFFB8825
:100584001946094800F0CEFF0346002B01D104238D
:10059400FB600022F021044800F0DCFFFB681846F1
:1005A4001037BD4680BD00BF0004024090B587B03F
:1005B40000AF294B3C1D0FCB84E80F0001212748D5
:1005C40000F0B0FF0346002B0AD10120FFF78CFF97
:1005D40078617B69013B18333B4413F8143C36E0E3
:1005E40002211E4800F09EFF0346002B0AD1022080
:1005F400FFF77AFF78617B69013B18333B4413F8BA
:10060400103C24E00421154800F08CFF0346002B25
:100614000AD10420FFF768FF78617B69013B183336
:100624003B4413F80C3C12E008210C4800F07AFF1C
:100634000346002B0AD10820FFF756FF78617B6937
:10064400013B18333B4413F8083C00E000231846F0
:100654001C37BD4690BD00BF0427000800040240BB
:1006640080B584B000AF03460A46FB801346BB80C6
:10067400BB88DBB21A464FF480713E4800F06AFF33
:10068400FB88DBB203F00103FB73FB7B1A460121F9
:10069400384800F05FFFFB885B089BB2DBB203F0D5
:1006A4000103FB73FB7B1A460221324800F052FF20
:1006B400FB889B089BB2DBB203F00103FB73FB7B5B
:1006C4001A4604212B4800F045FFFB88DB089BB247
:1006D400DBB203F00103FB73FB7B1A4608212548B8
:1006E40000F038FFFB881B099BB2DBB203F0010367
:1006F400FB73FB7B1A4610211E4800F02BFFFB887E
:100704005B099BB2DBB203F00103FB73FB7B1A466C
:100714002021184800F01EFFFB889B099BB2DBB226
:1007240003F00103FB73FB7B1A464021114800F0E0
:1007340011FFFB88DB099BB2DBB203F00103FB73FF
:10074400FB7B1A4680210B4800F004FF01224FF482
:100754000071084800F0FEFE052000F029FC00228C
:100764004FF40071034800F0F5FE00BF1037BD469A
:1007740080BD00BF0000024080B500AF00213820DA
:10078400FFF76EFF00210C20FFF76AFF00210E2007
:10079400FFF766FF00210620FFF762FF002101201A
:1007A400FFF75EFF00218020FFF75AFF00BF80BDE6
:1007B40080B582B000AF786009E07B681B789BB29B
:1007C40001211846FFF74CFF7B6801337B607B688F
:1007D4001B78002BF1D100BF00BF0837BD4680BD98
:1007E40080B582B000AF0346FB71FB79002B05D0C6
:1007F400FB799BB201211846FFF732FF00BF08378F
:10080400BD4680BD80B582B000AF03463960FB7140
:10081400FB79002B53D0FB792F2B0CD9FB79392B87
:1008240009D8294B1B682949FA79CA54264B1B68F5
:100834000133254A1360FB793D2B40D124492348D9
:10084400FFF7C6FC0346002B1CD100210120FFF753
:1008540007FF2048FFF7ACFF1B4B00221A60002162
:10086400C020FFF7FDFE1C48FFF7A2FF4FF4FA700B
:1008740000F09EFB00210120FFF7F2FE1748FFF76E
:1008840097FF1CE03B681B685A1C3B681A600021F8
:100894000120FFF7E5FE1248FFF78AFF0A4B00220A
:1008A4001A60C82000F084FB00210120FFF7D8FE65
:1008B4000C48FFF77DFF0021C020FFF7D1FE00BFE9
:1008C4000837BD4680BD00BFCC000020C00000201A
:1008D4000000002014270008242700082C27000803
:1008E4003C2700084827000880B582B000AF786034
:1008F4004FF40051034800F046FE00BF0837BD46E0
:1009040080BD00BF0008024080B582B000AF002364
:100914003B6000F0DBFA00F06BF800F063F900F0E4
:10092400C7F800F011F92A4801F0BCFA002240F29D
:10093400FF31284800F00EFE01220F21264800F066
:1009440009FE0022F021244800F004FEFFF714FF02
:100954002248FFF72DFFC82000F02AFB0021802049
:10096400FFF77EFE1E48FFF723FF0021C020FFF79C
:1009740077FEFFF71BFE0346FB71FB791846FFF772
:100984002FFF3A46FB7911461846FFF73BFF3B68B9
:10099400052B14D101224FF48051124800F0DAFDE6
:1009A40000210120FFF75CFE0F48FFF701FF002143
:1009B400C020FFF755FE0D48FFF7FAFE03E096202E
:1009C40000F0F6FAD5E7002318460837BD4680BD87
:1009D40030000020000002400004024058270008B4
:1009E40064270008000802407427000884270008D0
:1009F40080B594B000AF07F12003302200211846DF
:100A040001F06AFE07F10C0300221A605A609A6032
:100A1400DA601A610023BB60234B1B6C224A43F04B
:100A240080531364204B1B6C03F08053BB60BB6882
:100A340000237B601D4B1B6823F440431B4A43F493
:100A440000431360194B1B6803F440437B607B68CD
:100A540002233B620123FB6210233B630023BB633D
:100A640007F12003184600F0A9FD0346002B01D02E
:100A740000F052F90F23FB6000233B6100237B61EC
:100A84000023BB610023FB6107F10C03002118461E
:100A940001F00CF80346002B01D000F03DF900BF33
:100AA4005037BD4680BD00BF003802400070004092
:100AB40080B586B000AF07F1080300221A605A60BF
:100AC4009A60DA603B4600221A605A601D4B4FF070
:100AD40080421A601B4B4FF47A525A60194B002221
:100AE4009A60184B9522DA60164B00221A61154B56
:100AF40080229A61134801F085F90346002B01D046
:100B040000F00AF94FF48053BB6007F1080319465B
:100B14000C4801F031FB0346002B01D000F0FCF837
:100B240000233B6000237B603B461946054801F0E7
:100B34002DFD0346002B01D000F0EEF800BF18375E
:100B4400BD4680BD3000002080B586B000AF07F1FF
:100B5400080300221A605A609A60DA603B46002259
:100B64001A605A601D4B1E4A1A601C4B4FF47A528D
:100B74005A601A4B00229A60184BC722DA60174B4E
:100B840000221A61154B80229A61144801F03AF947
:100B94000346002B01D000F0BFF84FF48053BB6034
:100BA40007F1080319460D4801F0E6FA0346002B45
:100BB40001D000F0B1F800233B6000237B603B468A
:100BC4001946064801F0E2FC0346002B01D000F070
:100BD400A3F800BF1837BD4680BD00BF78000020D1
:100BE4000008004080B588B000AF07F10C03002274
:100BF4001A605A609A60DA601A610023BB60424B43
:100C04001B6B414A43F0040313633F4B1B6B03F01C
:100C14000403BB60BB6800237B603B4B1B6B3A4AFD
:100C240043F001031363384B1B6B03F001037B6038
:100C34007B6800233B60344B1B6B334A43F0020355
:100C44001363314B1B6B03F002033B603B680022D0
:100C54004FF400512D4800F07DFC002240F2FF319A
:100C64002B4800F077FC0022F0212A4800F072FCA7
:100C74004FF40053FB6001233B6100237B6100239D
:100C8400BB6107F10C031946204800F0C7FA4FF482
:100C94008053FB6001233B6100237B610023BB6124
:100CA40007F10C031946194800F0B8FA40F2FF3373
:100CB400FB6001233B6100237B610023BB6107F1DF
:100CC4000C031946124800F0A9FA0F23FB60002315
:100CD4003B6101237B6107F10C0319460D4800F0C9
:100CE4009DFAF023FB6001233B6100237B61002319
:100CF400BB6107F10C031946064800F08FFA00BFE8
:100D04002037BD4680BD00BF0038024000080240C5
:100D1400000002400004024080B400AF72B600BF7D
:100D2400FEE7000080B483B000AF00237B60104B6B
:100D34005B6C0F4A43F4804353640D4B5B6C03F4C8
:100D440080437B607B6800233B60094B1B6C084A33
:100D540043F080531364064B1B6C03F080533B60D9
:100D64003B6800BF0C37BD465DF8047B704700BF8D
:100D74000038024080B584B000AF78607B681B689F
:100D8400B3F1804F16D10023FB60164B1B6C154A40
:100D940043F001031364134B1B6C03F00103FB606A
:100DA400FB68002200211C2000F001FA1C2000F046
:100DB4001AFA12E07B681B680B4A93420DD1002398
:100DC400BB60084B1B6C074A43F004031364054BD8
:100DD4001B6C03F00403BB60BB6800BF1037BD4647
:100DE40080BD00BF003802400008004080B400AF5E
:100DF400FEE780B400AFFEE780B400AFFEE780B446
:100E040000AFFEE780B400AFFEE780B400AF00BFE0
:100E1400BD465DF8047B704780B400AF00BFBD469B
:100E24005DF8047B704780B400AF00BFBD465DF839
:100E3400047B704780B500AF00F09AF800BF80BD16
:100E440080B500AF024801F08FF800BF80BD00BF3D
:100E54003000002080B400AF064BD3F88830054A38
:100E640043F47003C2F8883000BFBD465DF8047BCC
:100E7400704700BF00ED00E0DFF834D00D480E49A4
:100E84000E4A002302E0D458C4500433C4188C42E0
:100E9400F9D30B4A0B4C002301E013600432A24245
:100EA400FBD3FFF7D7FF01F0F3FBFFF72DFD7047EE
:100EB400008001200000002014000020B02700085A
:100EC40014000020D4000020FEE7000080B500AF2D
:100ED4000E4B1B680D4A43F4007313600B4B1B68E5
:100EE4000A4A43F480631360084B1B68074A43F4BF
:100EF40080731360032000F04FF90F2000F008F80E
:100F0400FFF710FF0023184680BD00BF003C0240DD
:100F140080B582B000AF7860124B1A68124B1B7810
:100F240019464FF47A73B3FBF1F3B2FBF3F31846AB
:100F340000F067F90346002B01D001230EE07B6823
:100F44000F2B0AD8002279684FF0FF3000F02FF9F8
:100F5400064A7B681360002300E001231846083723
:100F6400BD4680BD08000020100000200C000020B9
:100F740080B400AF064B1B781A46064B1B6813441B
:100F8400044A136000BFBD465DF8047B704700BF90
:100F940010000020D000002080B400AF034B1B6879
:100FA4001846BD465DF8047B704700BFD0000020A2
:100FB40080B584B000AF7860FFF7EEFFB8607B685F
:100FC400FB60FB68B3F1FF3F05D00A4B1B781A4660
:100FD400FB681344FB6000BFFFF7DEFF0246BB68FB
:100FE400D31AFA689A42F7D800BF00BF1037BD463B
:100FF40080BD00BF1000002080B485B000AF7860D1
:101004007B6803F00703FB600C4BDB68BB60BA68CA
:101014004FF6FF031340BB60FB681A02BB6813431F
:1010240043F0BF6343F40033BB60044ABB68D3603E
:1010340000BF1437BD465DF8047B704700ED00E047
:1010440080B400AF044BDB681B0A03F007031846A7
:10105400BD465DF8047B704700ED00E080B483B0CA
:1010640000AF0346FB7197F90730002B0BDBFB79CC
:1010740003F01F02074997F907305B09012000FAC2
:1010840002F241F8232000BF0C37BD465DF8047B13
:10109400704700BF00E100E080B483B000AF0346B6
:1010A4003960FB7197F90730002B0ADB3B68DAB231
:1010B4000C4997F907301201D2B20B4483F800238C
:1010C4000AE03B68DAB20849FB7903F00F03043BFA
:1010D4001201D2B20B441A7600BF0C37BD465DF83C
:1010E400047B704700E100E000ED00E080B489B0CB
:1010F40000AFF860B9607A60FB6803F00703FB6136
:10110400FB69C3F10703042B28BF0423BB61FB69FC
:101114000433062B02D9FB69033B00E000237B6107
:101124004FF0FF32BB6902FA03F3DA43BB681A409B
:101134007B699A404FF0FF317B6901FA03F3D9438D
:101144007B680B40134318462437BD465DF8047B87
:101154007047000080B582B000AF78607B68013BC7
:10116400B3F1807F01D301230FE00A4A7B68013B7E
:1011740053600F214FF0FF30FFF78EFF054B002225
:101184009A60044B07221A60002318460837BD46AC
:1011940080BD00BF10E000E080B582B000AF786091
:1011A4007868FFF729FF00BF0837BD4680BD80B5CA
:1011B40086B000AF0346B9607A60FB7300237B619D
:1011C400FFF73EFF78617A68B9687869FFF78EFFA8
:1011D400024697F90F3011461846FFF75DFF00BF2E
:1011E4001837BD4680BD80B582B000AF0346FB71A1
:1011F40097F907301846FFF731FF00BF0837BD469F
:1012040080BD80B582B000AF78607868FFF7A2FF38
:10121400034618460837BD4680BD000080B489B037
:1012240000AF7860396000237B6100233B610023B9
:10123400BB610023FB6159E10122FB6902FA03F35C
:101244007B613B681B687A6913403B613A697B693F
:101254009A4240F048813B685B6803F00303012B2A
:1012640005D03B685B6803F00303022B30D17B6835
:101274009B68BB61FB695B00032202FA03F3DB4357
:10128400BA691340BB613B68DA68FB695B0002FA28
:1012940003F3BA691343BB617B68BA699A607B68DC
:1012A4005B68BB610122FB6902FA03F3DB43BA69A1
:1012B4001340BB613B685B681B0903F00102FB69D7
:1012C40002FA03F3BA691343BB617B68BA695A60D3
:1012D4003B685B6803F00303032B17D07B68DB6870
:1012E400BB61FB695B00032202FA03F3DB43BA69C7
:1012F4001340BB613B689A68FB695B0002FA03F325
:10130400BA691343BB617B68BA69DA603B685B689E
:1013140003F00303022B23D1FB69DA087B6808324C
:1013240053F82230BB61FB6903F007039B000F22D3
:1013340002FA03F3DB43BA691340BB613B681A69E1
:10134400FB6903F007039B0002FA03F3BA69134332
:10135400BB61FB69DA087B680832B96943F822107B
:101364007B681B68BB61FB695B00032202FA03F321
:10137400DB43BA691340BB613B685B6803F003025B
:10138400FB695B0002FA03F3BA691343BB617B6830
:10139400BA691A603B685B6803F44033002B00F0C1
:1013A400A2800023FB60574B5B6C564A43F4804396
:1013B4005364544B5B6C03F48043FB60FB68524AF8
:1013C400FB699B08023352F82330BB61FB6903F0CD
:1013D40003039B000F2202FA03F3DB43BA691340B1
:1013E400BB617B68494A934219D07B68484A93425F
:1013F40013D07B68474A93420DD07B68464A934298
:1014040007D07B68454A934201D1042308E00723AF
:1014140006E0032304E0022302E0012300E00023AA
:10142400FA6902F0030292009340BA691343BB6164
:101434003549FB699B080233BA6941F82320384BCC
:101444009B68BB613B69DB43BA691340BB613B6882
:101454005B6803F48013002B03D0BA693B69134320
:10146400BB612F4ABB6993602D4BDB68BB613B6951
:10147400DB43BA691340BB613B685B6803F4001348
:10148400002B03D0BA693B691343BB61244ABB698F
:10149400D360234B5B68BB613B69DB43BA69134090
:1014A400BB613B685B6803F40033002B03D0BA696B
:1014B4003B691343BB611A4ABB695360184B1B68F1
:1014C400BB613B69DB43BA691340BB613B685B6842
:1014D40003F48033002B03D0BA693B691343BB6127
:1014E4000F4ABB691360FB690133FB61FB690F2B76
:1014F4007FF6A2AE00BF00BF2437BD465DF8047B73
:10150400704700BF0038024000380140000002402C
:101514000004024000080240000C02400010024097
:10152400003C014080B485B000AF78600B467B80FE
:101534007B681A697B881340002B02D00123FB735C
:1015440001E00023FB73FB7B18461437BD465DF8AE
:10155400047B704780B483B000AF78600B467B8017
:1015640013467B707B78002B03D07A887B689A6162
:1015740003E07B881A047B689A6100BF0C37BD4680
:101584005DF8047B704780B485B000AF78600B468B
:101594007B807B685B69FB607A88FB6813401A0474
:1015A400FB68D9437B880B401A437B689A6100BF70
:1015B4001437BD465DF8047B7047000080B586B0E3
:1015C40000AF78607B68002B01D1012367E27B6860
:1015D4001B6803F00103002B75D0884B9B6803F054
:1015E4000C03042B0CD0854B9B6803F00C03082BD5
:1015F40012D1824B5B6803F48003B3F5800F0BD1E7
:101604007E4B1B6803F40033002B5BD07B685B6864
:10161400002B57D1012342E27B685B68B3F5803F1E
:1016240006D1764B1B68754A43F4803313601DE082
:101634007B685B68B3F5A02F0CD1704B1B686F4AB5
:1016440043F4802313606D4B1B686C4A43F480336E
:1016540013600BE0694B1B68684A23F48033136002
:10166400664B1B68654A23F4802313607B685B68C0
:10167400002B13D0FFF790FC386108E0FFF78CFCD7
:1016840002463B69D31A642B01D9032307E25B4B5F
:101694001B6803F40033002BF0D014E0FFF77CFC4C
:1016A400386108E0FFF778FC02463B69D31A642BE3
:1016B40001D90323F3E1514B1B6803F40033002BDE
:1016C400F0D100E000BF7B681B6803F00203002B2D
:1016D40063D04A4B9B6803F00C03002B0BD0474BA1
:1016E4009B6803F00C03082B1CD1444B5B6803F488
:1016F4008003002B16D1414B1B6803F00203002B1F
:1017040005D07B68DB68012B01D00123C7E13B4B8B
:101714001B6823F0F8027B681B69DB00374913431D
:101724000B603AE07B68DB68002B20D0344B01224D
:101734001A60FFF731FC386108E0FFF72DFC024620
:101744003B69D31A022B01D90323A8E12B4B1B6855
:1017540003F00203002BF0D0284B1B6823F0F8029F
:101764007B681B69DB00254913430B6015E0244BA0
:1017740000221A60FFF710FC386108E0FFF70CFC48
:1017840002463B69D31A022B01D9032387E11B4B81
:101794001B6803F00203002BF0D17B681B6803F085
:1017A4000803002B36D07B685B69002B16D0154BE1
:1017B40001221A60FFF7F0FB386108E0FFF7ECFB49
:1017C40002463B69D31A022B01D9032367E10B4B71
:1017D4005B6F03F00203002BF0D01BE0094B0022E7
:1017E4001A60FFF7D9FB38610EE0FFF7D5FB02461C
:1017F4003B69D31A022B07D9032350E10038024076
:1018040000004742800E4742884B5B6F03F002039F
:10181400002BEAD17B681B6803F00403002B00F063
:1018240097800023FB75814B1B6C03F08053002BC6
:101834000FD10023BB607D4B1B6C7C4A43F080536B
:1018440013647A4B1B6C03F08053BB60BB680123A9
:10185400FB75774B1B6803F48073002B18D1744B12
:101864001B68734A43F480731360FFF795FB386178
:1018740008E0FFF791FB02463B69D31A022B01D91A
:1018840003230CE16A4B1B6803F48073002BF0D034
:101894007B689B68012B06D1644B1B6F634A43F042
:1018A400010313671CE07B689B68052B0CD15F4B1D
:1018B4001B6F5E4A43F0040313675C4B1B6F5B4A68
:1018C40043F0010313670BE0584B1B6F574A23F097
:1018D40001031367554B1B6F544A23F0040313672A
:1018E4007B689B68002B15D0FFF756FB38610AE034
:1018F400FFF752FB02463B69D31A41F28832934206
:1019040001D90323CBE0494B1B6F03F00203002BE7
:10191400EED014E0FFF740FB38610AE0FFF73CFB30
:1019240002463B69D31A41F28832934201D9032318
:10193400B5E03E4B1B6F03F00203002BEED1FB7DA1
:10194400012B05D1394B1B6C384A23F080531364A7
:101954007B689B69002B00F0A180344B9B6803F0EB
:101964000C03082B5CD07B689B69022B41D1314B63
:1019740000221A60FFF710FB386108E0FFF70CFB48
:1019840002463B69D31A022B01D9032387E0274B74
:101994001B6803F00073002BF0D17B68DA697B6865
:1019A4001B6A1A437B685B6A9B011A437B689B6AC8
:1019B4005B08013B1B041A437B68DB6A1B061B495B
:1019C40013434B601B4B01221A60FFF7E5FA3861A1
:1019D40008E0FFF7E1FA02463B69D31A022B01D96A
:1019E40003235CE0114B1B6803F00073002BF0D061
:1019F40054E0104B00221A60FFF7CEFA386108E079
:101A0400FFF7CAFA02463B69D31A022B01D9032312
:101A140045E0064B1B6803F00073002BF0D13DE05A
:101A24007B689B69012B07D1012338E00038024011
:101A340000700040600047421B4B5B68FB607B68A2
:101A44009B69012B28D0FB6803F480027B68DB6967
:101A54009A4221D1FB6803F03F027B681B6A9A42D9
:101A64001AD1FA6847F6C07313407A68526A920131
:101A7400934211D1FB6803F440327B689B6A5B0894
:101A8400013B1B049A4207D1FB6803F070627B6838
:101A9400DB6A1B069A4201D0012300E000231846AA
:101AA4001837BD4680BD00BF0038024080B584B001
:101AB40000AF786039607B68002B01D10123CCE052
:101AC400684B1B6803F007033A689A420CD9654BCC
:101AD4003A68D2B21A70634B1B6803F007033A6882
:101AE4009A4201D00123B8E07B681B6803F002032B
:101AF400002B20D07B681B6803F00403002B05D067
:101B0400594B9B68584A43F4E05393607B681B68C5
:101B140003F00803002B05D0534B9B68524A43F44F
:101B240060439360504B9B6823F0F0027B689B6892
:101B34004D4913438B607B681B6803F00103002B42
:101B440044D07B685B68012B07D1474B1B6803F4C7
:101B54000033002B19D101237FE07B685B68022BE3
:101B640003D07B685B68032B07D13F4B1B6803F0F2
:101B74000073002B09D101236FE03B4B1B6803F07A
:101B84000203002B01D1012367E0374B9B6823F04C
:101B940003027B685B68344913438B60FFF7FCF9ED
:101BA400F8600AE0FFF7F8F90246FB68D31A41F23D
:101BB4008832934201D903234FE02B4B9B6803F0F7
:101BC4000C027B685B689B009A42EBD1254B1B6837
:101BD40003F007033A689A420CD2224B3A68D2B215
:101BE4001A70204B1B6803F007033A689A4201D02D
:101BF400012332E07B681B6803F00403002B08D048
:101C0400194B9B6823F4E0527B68DB681649134345
:101C14008B607B681B6803F00803002B09D0124B10
:101C24009B6823F460427B681B69DB000E49134305
:101C34008B6000F021F802460B4B9B681B0903F0F4
:101C44000F030A49CB5C22FA03F3094A1360094BD8
:101C54001B681846FFF75CF9002318461037BD4689
:101C640080BD00BF003C02400038024090270008BD
:101C7400080000200C0000202DE9B04F90B000AF08
:101C840000237B630023FB6300233B630023BB63CC
:101C9400594B9B6803F00C03082B0DD0082B00F262
:101CA400A180002B02D0042B03D09BE0534BBB63D9
:101CB4009BE0534BBB6398E04F4B5B6803F03F03DF
:101CC4007B634D4B5B6803F48003002B28D04A4BA5
:101CD4005B689B0900223B627A623B6AC3F308009B
:101CE4000021474B03FB01F2002300FB03F31344E1
:101CF400434AA0FB0212FA620A46BA62FA6A134421
:101D0400FB627B6B0022BB61FA61D7E90623D7E94A
:101D14000A01FEF767FA02460B461346FB6353E0DB
:101D2400354B5B689B0900223B617A613B69C3F3D5
:101D3400080A4FF0000B52465B464FF000004FF08C
:101D44000001590141EAD261500102460B46B2EB4F
:101D54000A0863EB0B094FF000024FF000034FEA4F
:101D6400891343EA98634FEA8812B2EB080463EBE1
:101D740009054FF000024FF00003EB0043EA5473EF
:101D8400E20014461D4614EB0A033B6045EB0B03CB
:101D94007B604FF000024FF00003D7E9004529466D
:101DA4008B02214643EA915321468A021046194682
:101DB4007B6B0022BB60FA60D7E90223FEF712FABC
:101DC40002460B461346FB630B4B5B681B0C03F08C
:101DD400030301335B003B63FA6B3B6BB2FBF3F32E
:101DE400BB6302E0054BBB6300BFBB6B18464037C7
:101DF400BD46BDE8B08F00BF003802400024F400A7
:101E040040787D0180B582B000AF78607B68002B9C
:101E140001D1012341E07B6893F83D30DBB2002B14
:101E240006D17B68002283F83C207868FEF7A2FF85
:101E34007B68022283F83D207B681A687B68043340
:101E44001946104600F088FA7B68012283F8462080
:101E54007B68012283F83E207B68012283F83F20BF
:101E64007B68012283F840207B68012283F84120AB
:101E74007B68012283F842207B68012283F8432097
:101E84007B68012283F844207B68012283F8452083
:101E94007B68012283F83D20002318460837BD469D
:101EA40080BD000080B485B000AF78607B6893F893
:101EB4003D30DBB2012B01D0012344E07B680222D8
:101EC40083F83D207B681B68DA687B681B6842F0F6
:101ED4000102DA607B681B681E4A934218D07B6853
:101EE4001B68B3F1804F13D07B681B681A4A934276
:101EF4000ED07B681B68194A934209D07B681B6823
:101F0400174A934204D07B681B68164A934211D146
:101F14007B681B689B6803F00703FB60FB68062B68
:101F240010D07B681B681A687B681B6842F001024A
:101F34001A6007E07B681B681A687B681B6842F0BC
:101F440001021A60002318461437BD465DF8047B6D
:101F5400704700BF0000014000040040000800403A
:101F6400000C00400040014080B582B000AF7860B2
:101F74007B681B681B6903F00203022B22D17B6878
:101F84001B68DB6803F00203022B1BD17B681B6810
:101F94006FF002021A617B6801221A777B681B6862
:101FA4009B6903F00303002B03D0786800F0B5F9B4
:101FB40005E0786800F0A7F9786800F0B8F97B6864
:101FC40000221A777B681B681B6903F00403042B47
:101FD40022D17B681B68DB6803F00403042B1BD14C
:101FE4007B681B686FF004021A617B6802221A770F
:101FF4007B681B689B6903F44073002B03D07868EB
:1020040000F08BF905E0786800F07DF9786800F05D
:102014008EF97B6800221A777B681B681B6903F0C2
:102024000803082B22D17B681B68DB6803F00803D4
:10203400082B1BD17B681B686FF008021A617B6850
:1020440004221A777B681B68DB6903F00303002B07
:1020540003D0786800F061F905E0786800F053F97E
:10206400786800F064F97B6800221A777B681B6843
:102074001B6903F01003102B22D17B681B68DB68FB
:1020840003F01003102B1BD17B681B686FF0100248
:102094001A617B6808221A777B681B68DB6903F482
:1020A4004073002B03D0786800F037F905E07868B6
:1020B40000F029F9786800F03AF97B6800221A7771
:1020C4007B681B681B6903F00103012B0ED17B683D
:1020D4001B68DB6803F00103012B07D17B681B68D5
:1020E4006FF001021A617868FEF7FEFB7B681B68DB
:1020F4001B6903F08003802B0ED17B681B68DB68AF
:1021040003F08003802B07D17B681B686FF080028B
:102114001A61786800F0B2FA7B681B681B6903F0E7
:102124004003402B0ED17B681B68DB6803F040033F
:10213400402B07D17B681B686FF040021A617868F6
:1021440000F0FFF87B681B681B6903F02003202B59
:102154000ED17B681B68DB6803F02003202B07D1BA
:102164007B681B686FF020021A61786800F07CFAC3
:1021740000BF0837BD4680BD80B584B000AF78602D
:1021840039600023FB737B6893F83C30012B01D149
:102194000223B4E07B68012283F83C207B6802229E
:1021A40083F83D207B681B689B68BB60BB6823F099
:1021B4007703BB60BB6823F47F43BB607B681B6809
:1021C400BA689A603B681B68B3F5005F3ED0B3F50C
:1021D400005F00F28780B3F5805F00F08680B3F57E
:1021E400805F7FD8702B1AD0702B7BD8602B50D097
:1021F400602B77D8502B3CD0502B73D8402B58D021
:10220400402B6FD8302B64D0302B6BD8202B60D070
:10221400202B67D8002B5CD0102B5AD062E07B684F
:1022240018683B6899683B685A683B68DB6800F04B
:102234008DF97B681B689B68BB60BB6843F07703C0
:10224400BB607B681B68BA689A604FE07B6818685B
:102254003B6899683B685A683B68DB6800F076F92C
:102264007B681B689A687B681B6842F480429A60AA
:102274003CE07B6818683B6859683B68DB681A4631
:1022840000F0EAF87B681B685021184600F043F917
:102294002CE07B6818683B6859683B68DB681A4621
:1022A40000F009F97B681B686021184600F033F9D7
:1022B4001CE07B6818683B6859683B68DB681A4611
:1022C40000F0CAF87B681B684021184600F023F927
:1022D4000CE07B681A683B681B681946104600F0DE
:1022E4001AF903E00123FB7300E000BF7B680122BD
:1022F40083F83D207B68002283F83C20FB7B184652
:102304001037BD4680BD80B483B000AF786000BF95
:102314000C37BD465DF8047B704780B483B000AFD2
:10232400786000BF0C37BD465DF8047B704780B40D
:1023340083B000AF786000BF0C37BD465DF8047B06
:10234400704780B483B000AF786000BF0C37BD46DF
:102354005DF8047B7047000080B485B000AF7860FE
:1023640039607B681B68FB607B68344A93420FD0FA
:102374007B68B3F1804F0BD07B68314A934207D01E
:102384007B68304A934203D07B682F4A934208D13A
:10239400FB6823F07003FB603B685B68FA681343D7
:1023A400FB607B68254A93421BD07B68B3F1804F66
:1023B40017D07B68224A934213D07B68214A934208
:1023C4000FD07B68204A93420BD07B681F4A93420C
:1023D40007D07B681E4A934203D07B681D4A934210
:1023E40008D1FB6823F44073FB603B68DB68FA6840
:1023F4001343FB60FB6823F080023B685B69134373
:10240400FB607B68FA681A603B689A687B68DA62EA
:102414003B681A687B689A627B68084A934203D1D6
:102424003B681A697B681A637B6801225A6100BFA2
:102434001437BD465DF8047B704700BF00000140BF
:102444000004004000080040000C0040004001402F
:10245400004401400048014080B487B000AFF860F8
:10246400B9607A60FB681B6A7B61FB681B6A23F0B6
:102474000102FB681A62FB689B693B613B6923F0BC
:10248400F0033B617B681B013A6913433B617B6941
:1024940023F00A037B617A69BB6813437B61FB68A1
:1024A4003A699A61FB687A691A6200BF1C37BD46B3
:1024B4005DF8047B704780B487B000AFF860B96002
:1024C4007A60FB681B6A23F01002FB681A62FB68DF
:1024D4009B697B61FB681B6A3B617B6923F47043E6
:1024E4007B617B681B037A6913437B613B6923F03F
:1024F400A0033B61BB681B013A6913433B61FB6862
:102504007A699A61FB683A691A6200BF1C37BD4652
:102514005DF8047B704780B485B000AF78603960A3
:102524007B689B68FB60FB6823F07003FB603A6880
:10253400FB68134343F00703FB607B68FA689A6007
:1025440000BF1437BD465DF8047B704780B487B084
:1025540000AFF860B9607A603B60FB689B687B61A0
:102564007B6923F47F437B613B681A027B681A43CF
:10257400BB6813437A6913437B61FB687A699A6089
:1025840000BF1C37BD465DF8047B704780B485B03E
:1025940000AF786039607B6893F83C30012B01D13F
:1025A400022350E07B68012283F83C207B680222EE
:1025B40083F83D207B681B685B68FB607B681B6855
:1025C4009B68BB60FB6823F07003FB603B681B687F
:1025D400FA681343FB607B681B68FA685A607B687F
:1025E4001B681C4A934218D07B681B68B3F1804F68
:1025F40013D07B681B68184A93420ED07B681B6813
:10260400164A934209D07B681B68154A934204D04A
:102614007B681B68134A93420CD1BB6823F0800388
:10262400BB603B685B68BA681343BB607B681B682C
:10263400BA689A607B68012283F83D207B68002297
:1026440083F83C20002318461437BD465DF8047B0C
:10265400704700BF00000140000400400008004033
:10266400000C00400040014080B483B000AF7860AB
:1026740000BF0C37BD465DF8047B704780B483B05F
:1026840000AF786000BF0C37BD465DF8047B70472F
:1026940070B50D4D0D4C641BA4100026A64209D143
:1026A4000B4D0C4C00F020F8641BA4100026A6422D
:1026B40005D170BD55F8043B98470136EEE755F84F
:1026C400043B98470136F2E7A8270008A82700082A
:1026D400A8270008AC27000802440346934200D10F
:1026E400704703F8011BF9E7F8B500BFF8BC08BC54
:1026F4009E467047F8B500BFF8BC08BC9E467047BC
:102704003738392F343536783132332D2A303D2B52
:102714004441204D4F204B484F41210A0000000006
:102724004F50454E4544210058494E204348414F9F
:102734002121212100000000494E434F52524543BC
:1027440054210000454E54455220414741494E3AD8
:102754000000000057454C434F4D45210000000048
:10276400454E5445522050415353574F52443A001A
:10277400434F204B4520444F54204E4841502100A4
:102784005741524E494E47212121000000000000CC
:0C27940000000000010203040607080911
:0827A00078DAFF7F0100000060
:0427A800B90100086B
:0427AC00950100088B
:1027B00032353132303100000024F40010000000C6
:0427C0000100000014
:0400000508000E7D64
:00000001FF
