:020000040800F2
:1000000000800120B90C0008410C0008470C0008D2
:100010004D0C0008530C0008590C000800000000AB
:100020000000000000000000000000005F0C00085D
:100030006D0C0008000000007B0C0008890C000813
:10004000090D0008090D0008090D0008090D000838
:10005000090D0008090D0008090D0008090D000828
:10006000090D0008090D0008090D0008090D000818
:10007000090D0008090D0008090D0008090D000808
:10008000090D0008090D0008090D00080000000016
:10009000000000000000000000000000090D000842
:1000A000090D0008090D0008090D0008090D0008D8
:1000B000090D0008090D0008090D0008090D0008C8
:1000C000090D0008090D0008090D0008090D0008B8
:1000D000090D0008090D0008090D000800000000C6
:1000E000090D0008090D0008090D000800000000B6
:1000F000000000000000000000000000090D0008E2
:1001000000000000090D0008090D0008090D000895
:1001100000000000000000000000000000000000DF
:10012000090D0008090D0008090D0008090D000857
:10013000090D0008000000000000000000000000A1
:10014000000000000000000000000000090D000891
:10015000090D0008090D0008090D0008090D000827
:10016000090D0008090D0008000000000000000053
:10017000000000000000000000000000000000007F
:1001800000000000090D0008000000000000000051
:04019000090D00084D
:1001940010B5054C237833B9044B13B10448AFF3BD
:1001A40000800123237010BD140000200000000013
:1001B400101C000808B5034B1BB103490348AFF3F7
:1001C400008008BD0000000018000020101C00087A
:1001D40010F8012B11F8013B012A28BF9A42F7D0ED
:1001E400D01A704753B94AB9002908BF00281CBF68
:1001F4004FF0FF314FF0FF3000F074B9ADF1080C4F
:100204006DE904CE00F006F8DDF804E0DDE9022330
:1002140004B070472DE9F047089D04468E46002B34
:100224004DD18A42944669D9B2FA82F252B101FAA6
:1002340002F3C2F1200120FA01F10CFA02FC41EAB6
:10024400030E94404FEA1C48210CBEFBF8F61FFA3B
:100254008CF708FB16E341EA034306FB07F19942D6
:100264000AD91CEB030306F1FF3080F01F81994289
:1002740040F21C81023E63445B1AA4B2B3FBF8F063
:1002840008FB103344EA034400FB07F7A7420AD9EA
:100294001CEB040400F1FF3380F00A81A74240F212
:1002A40007816444023840EA0640E41B00261DB17D
:1002B400D4400023C5E900433146BDE8F0878B42B2
:1002C40009D9002D00F0EF800026C5E90001304671
:1002D4003146BDE8F087B3FA83F6002E4AD18B424B
:1002E40002D3824200F2F980841A61EB03030120F5
:1002F4009E46002DE0D0C5E9004EDDE702B9FFDEE1
:10030400B2FA82F2002A40F09280A1EB0C014FEA8B
:100314001C471FFA8CFE0126200CB1FBF7F307FBE8
:10032400131140EA01410EFB03F0884208D91CEB8B
:10033400010103F1FF3802D2884200F2CB80434628
:10034400091AA4B2B1FBF7F007FB101144EA014407
:100354000EFB00FEA64508D91CEB040400F1FF3196
:1003640002D2A64500F2BB800846A4EB0E0440EA84
:1003740003409CE7C6F12007B34022FA07FC4CEA8D
:10038400030C20FA07F401FA06F31C43F9404FEA80
:100394001C4900FA06F3B1FBF9F8200C1FFA8CFE95
:1003A40009FB181140EA014108FB0EF0884202FAE9
:1003B40006F20BD91CEB010108F1FF3A80F08880AA
:1003C400884240F28580A8F102086144091AA4B267
:1003D400B1FBF9F009FB101144EA014100FB0EFEE8
:1003E4008E4508D91CEB010100F1FF346CD28E4517
:1003F4006AD90238614440EA0840A0FB0294A1EBA8
:100404000E01A142C846A64656D353D05DB1B3EB04
:10041400080261EB0E0101FA07F722FA06F3F14034
:100424001F43C5E9007100263146BDE8F087C2F1DB
:100434002003D8400CFA02FC21FA03F39140014353
:100444004FEA1C471FFA8CFEB3FBF7F007FB10368C
:100454000B0C43EA064300FB0EF69E4204FA02F438
:1004640008D91CEB030300F1FF382FD29E422DD98B
:10047400023863449B1B89B2B3FBF7F607FB1633C0
:1004840041EA034106FB0EF38B4208D91CEB010140
:1004940006F1FF3816D28B4214D9023E6144C91AC0
:1004A40046EA004638E72E46284605E70646E3E6D0
:1004B4001846F8E64B45A9D2B9EB020864EB0C0EDA
:1004C4000138A3E74646EAE7204694E74046D1E7E9
:1004D400D0467BE7023B614432E7304609E7644497
:1004E400023842E7704700BF80B584B000AF0346CE
:1004F400FB800122F0212C4800F01EFF0022102175
:10050400294800F019FFFB881946274800F0FCFE33
:100514000346002B01D10123FB6001221021224854
:1005240000F00AFF002220211F4800F005FFFB888D
:1005340019461D4800F0E8FE0346002B01D10223B2
:10054400FB6001222021184800F0F6FE0022402121
:10055400154800F0F1FEFB881946134800F0D4FE5C
:100564000346002B01D10323FB60012240210E48E6
:1005740000F0E2FE002280210B4800F0DDFEFB8843
:100584001946094800F0C0FE0346002B01D104239C
:10059400FB600022F021044800F0CEFEFB68184600
:1005A4001037BD4680BD00BF0004024090B587B03F
:1005B40000AF294B3C1D0FCB84E80F0001212748D5
:1005C40000F0A2FE0346002B0AD10120FFF78CFFA6
:1005D40078617B69013B18333B4413F8143C36E0E3
:1005E40002211E4800F090FE0346002B0AD102208F
:1005F400FFF77AFF78617B69013B18333B4413F8BA
:10060400103C24E00421154800F07EFE0346002B34
:100614000AD10420FFF768FF78617B69013B183336
:100624003B4413F80C3C12E008210C4800F06CFE2B
:100634000346002B0AD10820FFF756FF78617B6937
:10064400013B18333B4413F8083C00E000231846F0
:100654001C37BD4690BD00BF281C000800040240A2
:1006640080B584B000AF03460A46FB801346BB80C6
:10067400BB88DBB21A464FF480713E4800F05CFE42
:10068400FB88DBB203F00103FB73FB7B1A460121F9
:10069400384800F051FEFB885B089BB2DBB203F0E4
:1006A4000103FB73FB7B1A460221324800F044FE2F
:1006B400FB889B089BB2DBB203F00103FB73FB7B5B
:1006C4001A4604212B4800F037FEFB88DB089BB256
:1006D400DBB203F00103FB73FB7B1A4608212548B8
:1006E40000F02AFEFB881B099BB2DBB203F0010376
:1006F400FB73FB7B1A4610211E4800F01DFEFB888D
:100704005B099BB2DBB203F00103FB73FB7B1A466C
:100714002021184800F010FEFB889B099BB2DBB235
:1007240003F00103FB73FB7B1A464021114800F0E0
:1007340003FEFB88DB099BB2DBB203F00103FB730E
:10074400FB7B1A4680210B4800F0F6FD01224FF492
:100754000071084800F0F0FD052000F047FB00227E
:100764004FF40071034800F0E7FD00BF1037BD46A9
:1007740080BD00BF0000024080B500AF00213820DA
:10078400FFF76EFF00210C20FFF76AFF00210E2007
:10079400FFF766FF00210620FFF762FF002101201A
:1007A400FFF75EFF00218020FFF75AFF00BF80BDE6
:1007B40080B582B000AF786009E07B681B789BB29B
:1007C40001211846FFF74CFF7B6801337B607B688F
:1007D4001B78002BF1D100BF00BF0837BD4680BD98
:1007E40080B582B000AF0346FB71FB79002B05D0C6
:1007F400FB799BB201211846FFF732FF00BF08378F
:10080400BD4680BD80B582B000AF03463960FB7140
:10081400FB79002B70D03A4B1B680133384A1360C4
:10082400FB792F2B0CD9FB79392B09D8354B1B6855
:100834003549FA79CA54334B1B680133314A136082
:100844002F4B1B680B2B1DD13B681B685A1C3B6844
:100854001A6000210120FFF703FF2C48FFF7A8FFCF
:10086400284B00221A604FF4FA7000F0BFFA0021FE
:100874000120FFF7F5FE2648FFF79AFF0021C0206C
:10088400FFF7EEFEFB793D2B36D122491E48FFF7D8
:100894009FFC0346002B11D100210120FFF7E0FE4D
:1008A4001D48FFF785FF174B00221A600021C02066
:1008B400FFF7D6FE1948FFF77BFF1DE03B681B6876
:1008C4005A1C3B681A6000210120FFF7C9FE0F483B
:1008D400FFF76EFF0B4B00221A604FF4FA7000F022
:1008E40085FA00210120FFF7BBFE0948FFF760FFEE
:1008F4000021C020FFF7B4FE00BF0837BD4680BD0D
:10090400400000203C00002030000020381C00087B
:10091400441C000800000020541C0008641C00084B
:1009240080B582B000AF00233B6000F0EDF900F029
:100934006DF800F0CBF8002240F2FF312C4800F0B3
:10094400FBFC01220F212B4800F0F6FC0022F021D1
:10095400284800F0F1FCFFF70FFF2748FFF728FFB6
:100964004FF4967000F042FA00218020FFF778FEE1
:100974002248FFF71DFF0021C020FFF771FE01226E
:100984004FF400511E4800F0D7FC642000F02EFA0A
:10099400FFF70CFE0346FB71FB791846FFF720FFB7
:1009A4003A46FB7911461846FFF72CFF3B68052BA6
:1009B4000ED100210120FFF753FE1248FFF7F8FE85
:1009C4000021C020FFF74CFE0F48FFF7F1FE09E0BD
:1009D40000224FF400510A4800F0AEFC642000F0FD
:1009E40005FACCE7002318460837BD4680BD00BF92
:1009F40000000240000402406C1C0008441C000873
:100A040000080240781C0008881C000880B594B0D7
:100A140000AF07F1200330220021184601F0EEF860
:100A240007F10C0300221A605A609A60DA601A61B6
:100A34000023BB60234B1B6C224A43F08053136496
:100A4400204B1B6C03F08053BB60BB6800237B60AE
:100A54001D4B1B6823F440431B4A43F400431360BB
:100A6400194B1B6803F440437B607B6802233B62A1
:100A74000123FB6210233B630023BB6307F12003C4
:100A8400184600F073FC0346002B01D000F0A8F8D0
:100A94000F23FB6000233B6100237B610023BB61C8
:100AA4000023FB6107F10C030021184600F0D6FE79
:100AB4000346002B01D000F093F800BF5037BD4629
:100AC40080BD00BF003802400070004080B588B08F
:100AD40000AF07F10C0300221A605A609A60DA60D2
:100AE4001A610023BB603A4B1B6B394A43F0040381
:100AF4001363374B1B6B03F00403BB60BB68002319
:100B04007B60334B1B6B324A43F001031363304B5E
:100B14001B6B03F001037B607B6800233B602C4B61
:100B24001B6B2B4A43F002031363294B1B6B03F02B
:100B340002033B603B6800224FF40051254800F05B
:100B4400FBFB002240F2FF31234800F0F5FB0022BA
:100B5400F021224800F0F0FB4FF40053FB60012326
:100B64003B6100237B610023BB6107F10C03194641
:100B7400184800F045FA40F2FF33FB6001233B6163
:100B840000237B610023BB6107F10C031946124863
:100B940000F036FA0F23FB6000233B6101237B61E5
:100BA40007F10C0319460D4800F02AFAF023FB6004
:100BB40001233B6100237B610023BB6107F10C032C
:100BC4001946064800F01CFA00BF2037BD4680BD18
:100BD40000380240000802400000024000040240C5
:100BE40080B400AF72B600BFFEE7000080B483B0EB
:100BF40000AF00237B60104B5B6C0F4A43F48043CF
:100C040053640D4B5B6C03F480437B607B6800236F
:100C14003B60094B1B6C084A43F080531364064B3A
:100C24001B6C03F080533B603B6800BF0C37BD4630
:100C34005DF8047B704700BF0038024080B400AF09
:100C4400FEE780B400AFFEE780B400AFFEE780B4F7
:100C540000AFFEE780B400AFFEE780B400AF00BF92
:100C6400BD465DF8047B704780B400AF00BFBD464D
:100C74005DF8047B704780B400AF00BFBD465DF8EB
:100C8400047B704780B500AF00F090F800BF80BDD2
:100C940080B400AF064BD3F88830054A43F47003A0
:100CA400C2F8883000BFBD465DF8047B704700BFC2
:100CB40000ED00E0DFF834D00D480E490E4A002361
:100CC40002E0D458C4500433C4188C42F9D30B4AFC
:100CD4000B4C002301E013600432A242FBD3FFF764
:100CE400D7FF00F067FFFFF71BFE7047008001206D
:100CF4000000002014000020B41C00081400002090
:100D040048000020FEE7000080B500AF0E4B1B68D2
:100D14000D4A43F4007313600B4B1B680A4A43F4F7
:100D240080631360084B1B68074A43F480731360A5
:100D3400032000F031F90F2000F008F8FFF756FF08
:100D44000023184680BD00BF003C024080B582B03D
:100D540000AF7860124B1A68124B1B7819464FF497
:100D64007A73B3FBF1F3B2FBF3F3184600F03BF9EB
:100D74000346002B01D001230EE07B680F2B0AD819
:100D8400002279684FF0FF3000F011F9064A7B68C1
:100D94001360002300E0012318460837BD4680BDD8
:100DA40008000020100000200C00002080B400AFD8
:100DB400064B1B781A46064B1B681344044A1360FF
:100DC40000BFBD465DF8047B704700BF10000020E3
:100DD4004400002080B400AF034B1B681846BD4696
:100DE4005DF8047B704700BF4400002080B584B0E8
:100DF40000AF7860FFF7EEFFB8607B68FB60FB68CC
:100E0400B3F1FF3F05D00A4B1B781A46FB68134425
:100E1400FB6000BFFFF7DEFF0246BB68D31AFA6827
:100E24009A42F7D800BF00BF1037BD4680BD00BF4F
:100E34001000002080B485B000AF78607B6803F0B8
:100E44000703FB600C4BDB68BB60BA684FF6FF031B
:100E54001340BB60FB681A02BB68134343F0BF63D3
:100E640043F40033BB60044ABB68D36000BF14374B
:100E7400BD465DF8047B704700ED00E080B400AF30
:100E8400044BDB681B0A03F007031846BD465DF8F4
:100E9400047B704700ED00E080B483B000AF0346EC
:100EA4003960FB7197F90730002B0ADB3B68DAB233
:100EB4000C4997F907301201D2B20B4483F800238E
:100EC4000AE03B68DAB20849FB7903F00F03043BFC
:100ED4001201D2B20B441A7600BF0C37BD465DF83E
:100EE400047B704700E100E000ED00E080B489B0CD
:100EF40000AFF860B9607A60FB6803F00703FB6138
:100F0400FB69C3F10703042B28BF0423BB61FB69FE
:100F14000433062B02D9FB69033B00E000237B6109
:100F24004FF0FF32BB6902FA03F3DA43BB681A409D
:100F34007B699A404FF0FF317B6901FA03F3D9438F
:100F44007B680B40134318462437BD465DF8047B89
:100F54007047000080B582B000AF78607B68013BC9
:100F6400B3F1807F01D301230FE00A4A7B68013B80
:100F740053600F214FF0FF30FFF78EFF054B002227
:100F84009A60044B07221A60002318460837BD46AE
:100F940080BD00BF10E000E080B582B000AF786093
:100FA4007868FFF747FF00BF0837BD4680BD80B5AE
:100FB40086B000AF0346B9607A60FB7300237B619F
:100FC400FFF75CFF78617A68B9687869FFF78EFF8C
:100FD400024697F90F3011461846FFF75DFF00BF30
:100FE4001837BD4680BD80B582B000AF78607868A0
:100FF400FFF7B0FF034618460837BD4680BD000022
:1010040080B489B000AF7860396000237B6100232D
:101014003B610023BB610023FB6159E10122FB69B1
:1010240002FA03F37B613B681B687A6913403B61F6
:101034003A697B699A4240F048813B685B6803F0F7
:101044000303012B05D03B685B6803F00303022B09
:1010540030D17B689B68BB61FB695B00032202FAA9
:1010640003F3DB43BA691340BB613B68DA68FB698D
:101074005B0002FA03F3BA691343BB617B68BA6984
:101084009A607B685B68BB610122FB6902FA03F327
:10109400DB43BA691340BB613B685B681B0903F01F
:1010A4000102FB6902FA03F3BA691343BB617B686B
:1010B400BA695A603B685B6803F00303032B17D0DB
:1010C4007B68DB68BB61FB695B00032202FA03F304
:1010D400DB43BA691340BB613B689A68FB695B00F8
:1010E40002FA03F3BA691343BB617B68BA69DA6035
:1010F4003B685B6803F00303022B23D1FB69DA0826
:101104007B68083253F82230BB61FB6903F00703A4
:101114009B000F2202FA03F3DB43BA691340BB615D
:101124003B681A69FB6903F007039B0002FA03F3A7
:10113400BA691343BB61FB69DA087B680832B96991
:1011440043F822107B681B68BB61FB695B000322C8
:1011540002FA03F3DB43BA691340BB613B685B6883
:1011640003F00302FB695B0002FA03F3BA69134359
:10117400BB617B68BA691A603B685B6803F44033FF
:10118400002B00F0A2800023FB60574B5B6C564A97
:1011940043F480435364544B5B6C03F48043FB601F
:1011A400FB68524AFB699B08023352F82330BB6147
:1011B400FB6903F003039B000F2202FA03F3DB43F2
:1011C400BA691340BB617B68494A934219D07B6872
:1011D400484A934213D07B68474A93420DD07B68B8
:1011E400464A934207D07B68454A934201D104237F
:1011F40008E0072306E0032304E0022302E00123BE
:1012040000E00023FA6902F0030292009340BA69F5
:101214001343BB613549FB699B080233BA6941F842
:101224002320384B9B68BB613B69DB43BA6913409D
:10123400BB613B685B6803F48013002B03D0BA697D
:101244003B691343BB612F4ABB6993602D4BDB6839
:10125400BB613B69DB43BA691340BB613B685B68B4
:1012640003F40013002B03D0BA693B691343BB6139
:10127400244ABB69D360234B5B68BB613B69DB4396
:10128400BA691340BB613B685B6803F40033002B0D
:1012940003D0BA693B691343BB611A4ABB69536003
:1012A400184B1B68BB613B69DB43BA691340BB61E4
:1012B4003B685B6803F48033002B03D0BA693B6955
:1012C4001343BB610F4ABB691360FB690133FB61C4
:1012D400FB690F2B7FF6A2AE00BF00BF2437BD46CB
:1012E4005DF8047B704700BF0038024000380140BD
:1012F400000002400004024000080240000C0240CA
:1013040000100240003C014080B485B000AF78601A
:101314000B467B807B681A697B881340002B02D0C4
:101324000123FB7301E00023FB73FB7B1846143796
:10133400BD465DF8047B704780B483B000AF78602D
:101344000B467B8013467B707B78002B03D07A8816
:101354007B689A6103E07B881A047B689A6100BF0A
:101364000C37BD465DF8047B7047000080B586B03D
:1013740000AF78607B68002B01D1012367E27B68B2
:101384001B6803F00103002B75D0884B9B6803F0A6
:101394000C03042B0CD0854B9B6803F00C03082B27
:1013A40012D1824B5B6803F48003B3F5800F0BD139
:1013B4007E4B1B6803F40033002B5BD07B685B68B7
:1013C400002B57D1012342E27B685B68B3F5803F71
:1013D40006D1764B1B68754A43F4803313601DE0D5
:1013E4007B685B68B3F5A02F0CD1704B1B686F4A08
:1013F40043F4802313606D4B1B686C4A43F48033C1
:1014040013600BE0694B1B68684A23F48033136054
:10141400664B1B68654A23F4802313607B685B6812
:10142400002B13D0FFF7D6FC386108E0FFF7D2FC9D
:1014340002463B69D31A642B01D9032307E25B4BB1
:101444001B6803F40033002BF0D014E0FFF7C2FC58
:10145400386108E0FFF7BEFC02463B69D31A642BEF
:1014640001D90323F3E1514B1B6803F40033002B30
:10147400F0D100E000BF7B681B6803F00203002B7F
:1014840063D04A4B9B6803F00C03002B0BD0474BF3
:101494009B6803F00C03082B1CD1444B5B6803F4DA
:1014A4008003002B16D1414B1B6803F00203002B71
:1014B40005D07B68DB68012B01D00123C7E13B4BDE
:1014C4001B6823F0F8027B681B69DB003749134370
:1014D4000B603AE07B68DB68002B20D0344B0122A0
:1014E4001A60FFF777FC386108E0FFF773FC0246E7
:1014F4003B69D31A022B01D90323A8E12B4B1B68A8
:1015040003F00203002BF0D0284B1B6823F0F802F1
:101514007B681B69DB00254913430B6015E0244BF2
:1015240000221A60FFF756FC386108E0FFF752FC0E
:1015340002463B69D31A022B01D9032387E11B4BD3
:101544001B6803F00203002BF0D17B681B6803F0D7
:101554000803002B36D07B685B69002B16D0154B33
:1015640001221A60FFF736FC386108E0FFF732FC0D
:1015740002463B69D31A022B01D9032367E10B4BC3
:101584005B6F03F00203002BF0D01BE0094B002239
:101594001A60FFF71FFC38610EE0FFF71BFC0246E0
:1015A4003B69D31A022B07D9032350E100380240C8
:1015B40000004742800E4742884B5B6F03F00203F2
:1015C400002BEAD17B681B6803F00403002B00F0B6
:1015D40097800023FB75814B1B6C03F08053002B19
:1015E4000FD10023BB607D4B1B6C7C4A43F08053BE
:1015F40013647A4B1B6C03F08053BB60BB680123FC
:10160400FB75774B1B6803F48073002B18D1744B64
:101614001B68734A43F480731360FFF7DBFB386184
:1016240008E0FFF7D7FB02463B69D31A022B01D926
:1016340003230CE16A4B1B6803F48073002BF0D086
:101644007B689B68012B06D1644B1B6F634A43F094
:10165400010313671CE07B689B68052B0CD15F4B6F
:101664001B6F5E4A43F0040313675C4B1B6F5B4ABA
:1016740043F0010313670BE0584B1B6F574A23F0E9
:1016840001031367554B1B6F544A23F0040313677C
:101694007B689B68002B15D0FFF79CFB38610AE040
:1016A400FFF798FB02463B69D31A41F28832934212
:1016B40001D90323CBE0494B1B6F03F00203002B3A
:1016C400EED014E0FFF786FB38610AE0FFF782FBF7
:1016D40002463B69D31A41F28832934201D903236B
:1016E400B5E03E4B1B6F03F00203002BEED1FB7DF4
:1016F400012B05D1394B1B6C384A23F080531364FA
:101704007B689B69002B00F0A180344B9B6803F03D
:101714000C03082B5CD07B689B69022B41D1314BB5
:1017240000221A60FFF756FB386108E0FFF752FB0E
:1017340002463B69D31A022B01D9032387E0274BC6
:101744001B6803F00073002BF0D17B68DA697B68B7
:101754001B6A1A437B685B6A9B011A437B689B6A1A
:101764005B08013B1B041A437B68DB6A1B061B49AD
:1017740013434B601B4B01221A60FFF72BFB3861AC
:1017840008E0FFF727FB02463B69D31A022B01D975
:1017940003235CE0114B1B6803F00073002BF0D0B3
:1017A40054E0104B00221A60FFF714FB386108E084
:1017B400FFF710FB02463B69D31A022B01D903231E
:1017C40045E0064B1B6803F00073002BF0D13DE0AD
:1017D4007B689B69012B07D1012338E00038024064
:1017E40000700040600047421B4B5B68FB607B68F5
:1017F4009B69012B28D0FB6803F480027B68DB69BA
:101804009A4221D1FB6803F03F027B681B6A9A422B
:101814001AD1FA6847F6C07313407A68526A920183
:10182400934211D1FB6803F440327B689B6A5B08E6
:10183400013B1B049A4207D1FB6803F070627B688A
:10184400DB6A1B069A4201D0012300E000231846FC
:101854001837BD4680BD00BF0038024080B584B053
:1018640000AF786039607B68002B01D10123CCE0A4
:10187400684B1B6803F007033A689A420CD9654B1E
:101884003A68D2B21A70634B1B6803F007033A68D4
:101894009A4201D00123B8E07B681B6803F002037D
:1018A400002B20D07B681B6803F00403002B05D0B9
:1018B400594B9B68584A43F4E05393607B681B6818
:1018C40003F00803002B05D0534B9B68524A43F4A2
:1018D40060439360504B9B6823F0F0027B689B68E5
:1018E4004D4913438B607B681B6803F00103002B95
:1018F40044D07B685B68012B07D1474B1B6803F41A
:101904000033002B19D101237FE07B685B68022B35
:1019140003D07B685B68032B07D13F4B1B6803F044
:101924000073002B09D101236FE03B4B1B6803F0CC
:101934000203002B01D1012367E0374B9B6823F09E
:1019440003027B685B68344913438B60FFF742FAF8
:10195400F8600AE0FFF73EFA0246FB68D31A41F248
:101964008832934201D903234FE02B4B9B6803F049
:101974000C027B685B689B009A42EBD1254B1B6889
:1019840003F007033A689A420CD2224B3A68D2B267
:101994001A70204B1B6803F007033A689A4201D07F
:1019A400012332E07B681B6803F00403002B08D09A
:1019B400194B9B6823F4E0527B68DB681649134398
:1019C4008B607B681B6803F00803002B09D0124B63
:1019D4009B6823F460427B681B69DB000E49134358
:1019E4008B6000F021F802460B4B9B681B0903F047
:1019F4000F030A49CB5C22FA03F3094A1360094B2B
:101A04001B681846FFF7A2F9002318461037BD4695
:101A140080BD00BF003C024000380240941C000816
:101A2400080000200C0000202DE9B04F90B000AF5A
:101A340000237B630023FB6300233B630023BB631E
:101A4400594B9B6803F00C03082B0DD0082B00F2B4
:101A5400A180002B02D0042B03D09BE0534BBB632B
:101A64009BE0534BBB6398E04F4B5B6803F03F0331
:101A74007B634D4B5B6803F48003002B28D04A4BF7
:101A84005B689B0900223B627A623B6AC3F30800ED
:101A94000021474B03FB01F2002300FB03F3134433
:101AA400434AA0FB0212FA620A46BA62FA6A134473
:101AB400FB627B6B0022BB61FA61D7E90623D7E99D
:101AC4000A01FEF78FFB02460B461346FB6353E005
:101AD400354B5B689B0900223B617A613B69C3F328
:101AE400080A4FF0000B52465B464FF000004FF0DF
:101AF4000001590141EAD261500102460B46B2EBA2
:101B04000A0863EB0B094FF000024FF000034FEAA1
:101B1400891343EA98634FEA8812B2EB080463EB33
:101B240009054FF000024FF00003EB0043EA547341
:101B3400E20014461D4614EB0A033B6045EB0B031D
:101B44007B604FF000024FF00003D7E900452946BF
:101B54008B02214643EA915321468A0210461946D4
:101B64007B6B0022BB60FA60D7E90223FEF73AFBE5
:101B740002460B461346FB630B4B5B681B0C03F0DE
:101B8400030301335B003B63FA6B3B6BB2FBF3F380
:101B9400BB6302E0054BBB6300BFBB6B1846403719
:101BA400BD46BDE8B08F00BF003802400024F400F9
:101BB40040787D0170B50D4D0D4C641BA4100026BA
:101BC400A64209D10B4D0C4C00F020F8641BA41064
:101BD4000026A64205D170BD55F8043B984701364E
:101BE400EEE755F8043B98470136F2E7AC1C0008D1
:101BF400AC1C0008AC1C0008B01C000802440346DE
:101C0400934200D1704703F8011BF9E7F8B500BF10
:101C1400F8BC08BC9E467047F8B500BFF8BC08BCC9
:041C24009E46704721
:101C28003738392F343536783132332D2A303D2B39
:101C380049434F525245435421000000454E5445F4
:101C4800522050415353574F52443A004441204D7B
:101C58004F204B484F41210A000000004F50454E8D
:101C68004544210057454C434F4D45210000000095
:101C7800434F204B4520444F54204E4841502100AB
:101C88005741524E494E47212121000000000000D3
:0C1C980000000000010203040607080918
:081CA40074E5FF7F0100000060
:041CAC00B901000872
:041CB0009501000892
:101CB40032353132303200000024F40010000000CC
:041CC400010000001B
:0400000508000CB92A
:00000001FF
