:020000040800F2
:100000000080012071150008791400087F14000891
:10001000851400088B1400089114000800000000EB
:10002000000000000000000000000000971400081D
:10003000A514000800000000B3140008C114000853
:10004000C1150008C1150008C1150008C115000838
:10005000C1150008C1150008C1150008C115000828
:10006000C1150008C1150008C1150008C115000818
:10007000C1150008C1150008C1150008C115000808
:10008000C1150008C1150008C115000800000000D6
:10009000000000000000000000000000C115000882
:1000A000C1150008C1150008C1150008C1150008D8
:1000B000CD140008C1150008C1150008C1150008BD
:1000C000C1150008C1150008C1150008C1150008B8
:1000D000C1150008C1150008C11500080000000086
:1000E000C1150008C1150008C11500080000000076
:1000F000000000000000000000000000C115000822
:1001000000000000C1150008C1150008C115000855
:1001100000000000000000000000000000000000DF
:10012000C1150008C1150008C1150008C115000857
:10013000C1150008000000000000000000000000E1
:10014000000000000000000000000000C1150008D1
:10015000C1150008C1150008C1150008C115000827
:10016000C1150008C11500080000000000000000D3
:10017000000000000000000000000000000000007F
:1001800000000000C1150008000000000000000091
:04019000C11500088D
:1001A00010B5054C237833B9044B13B10448AFF3B1
:1001B00000800123237010BD7800002000000000A3
:1001C000C836000808B5034B1BB103490348AFF319
:1001D000008008BD000000007C000020C836000838
:1001E00010F8012B11F8013B012A28BF9A42F7D0E1
:1001F000D01A70470000000000000000000000005E
:1002000001F0FF01102A2BDB10F0070F08D010F8C7
:10021000013B013A8B422DD010F0070F42B3F6D1CB
:10022000F0B441EA012141EA014122F007047FF0E4
:1002300000070023F0E80256083C85EA010586EA3B
:10024000010685FA47F5A3FA87F586FA47F6A5FA77
:1002500087F68EB9EED1F0BC01F0FF0102F0070283
:1002600032B110F8013B013A83EA010313B1F8D12E
:100270000020704701387047002D06BF354603380F
:10028000073815F0010F07D1013015F4807F02BF48
:10029000013015F4C03F0130F0BC0138704700BF99
:1002A00053B94AB9002908BF00281CBF4FF0FF31DD
:1002B0004FF0FF3000F074B9ADF1080C6DE904CED9
:1002C00000F006F8DDF804E0DDE9022304B0704731
:1002D0002DE9F047089D04468E46002B4DD18A42F9
:1002E000944669D9B2FA82F252B101FA02F3C2F12C
:1002F000200120FA01F10CFA02FC41EA030E9440BD
:100300004FEA1C48210CBEFBF8F61FFA8CF708FBDD
:1003100016E341EA034306FB07F199420AD91CEBB5
:10032000030306F1FF3080F01F81994240F21C81E7
:10033000023E63445B1AA4B2B3FBF8F008FB10332F
:1003400044EA034400FB07F7A7420AD91CEB040464
:1003500000F1FF3380F00A81A74240F20781644434
:10036000023840EA0640E41B00261DB1D4400023B9
:10037000C5E900433146BDE8F0878B4209D9002D1D
:1003800000F0EF800026C5E9000130463146BDE8A7
:10039000F087B3FA83F6002E4AD18B4202D3824211
:1003A00000F2F980841A61EB030301209E46002DC0
:1003B000E0D0C5E9004EDDE702B9FFDEB2FA82F215
:1003C000002A40F09280A1EB0C014FEA1C471FFA73
:1003D0008CFE0126200CB1FBF7F307FB131140EA5A
:1003E00001410EFB03F0884208D91CEB010103F127
:1003F000FF3802D2884200F2CB804346091AA4B2E9
:10040000B1FBF7F007FB101144EA01440EFB00FEBC
:10041000A64508D91CEB040400F1FF3102D2A64521
:1004200000F2BB800846A4EB0E0440EA03409CE7C0
:10043000C6F12007B34022FA07FC4CEA030C20FA6D
:1004400007F401FA06F31C43F9404FEA1C4900FA8D
:1004500006F3B1FBF9F8200C1FFA8CFE09FB18110A
:1004600040EA014108FB0EF0884202FA06F20BD97D
:100470001CEB010108F1FF3A80F08880884240F2CD
:100480008580A8F102086144091AA4B2B1FBF9F011
:1004900009FB101144EA014100FB0EFE8E4508D90C
:1004A0001CEB010100F1FF346CD28E456AD9023891
:1004B000614440EA0840A0FB0294A1EB0E01A14276
:1004C000C846A64656D353D05DB1B3EB080261EBE4
:1004D0000E0101FA07F722FA06F3F1401F43C5E9BE
:1004E000007100263146BDE8F087C2F12003D840F4
:1004F0000CFA02FC21FA03F3914001434FEA1C4736
:100500001FFA8CFEB3FBF7F007FB10360B0C43EA27
:10051000064300FB0EF69E4204FA02F408D91CEBD7
:10052000030300F1FF382FD29E422DD902386344D5
:100530009B1B89B2B3FBF7F607FB163341EA034175
:1005400006FB0EF38B4208D91CEB010106F1FF38C4
:1005500016D28B4214D9023E6144C91A46EA0046BB
:1005600038E72E46284605E70646E3E61846F8E64D
:100570004B45A9D2B9EB020864EB0C0E0138A3E796
:100580004646EAE7204694E74046D1E7D0467BE777
:10059000023B614432E7304609E76444023842E7EF
:1005A000704700BF80B582B000AF0346FB80FB8878
:1005B000184601F079F800BF0837BD4680BD80B508
:1005C00082B000AF78600B46FB701346BB70BB78FF
:1005D000002B08D17B6858687B681B89002219466C
:1005E00001F034FB0AE0BB78012B07D17B68586827
:1005F0007B681B890122194601F028FB7B6858693A
:100600007B68198BFB7803F00103DBB21A4601F01B
:100610001DFB7B68D8697B68198CFB785B08DBB2B3
:1006200003F00103DBB21A4601F010FB7B68586A45
:100630007B68198DFB789B08DBB203F00103DBB20A
:100640001A4601F003FB7B68D86A7B68198EFB7839
:10065000DB08DBB203F00103DBB21A4601F0F6FA65
:100660007B68586B7B68198FFB781B09DBB203F042
:100670000103DBB21A4601F0E9FA7B68D86B7B68AC
:10068000B3F84010FB785B09DBB203F00103DBB287
:100690001A4601F0DBFA7B68586C7B68B3F84810A7
:1006A000FB789B09DBB203F00103DBB21A4601F0D1
:1006B000CDFA7B68D86C7B68B3F85010FB78DB0907
:1006C000DBB21A4601F0C2FA7B68D8687B681B8AE5
:1006D0000022194601F0BAFA0120FFF763FF7B6898
:1006E000D8687B681B8A0122194601F0AFFA012005
:1006F000FFF758FF7B68D8687B681B8A0022194681
:1007000001F0A4FA0120FFF74DFF00BF0837BD46F6
:1007100080BD80B584B000AF78600B46FB70134697
:10072000BB70FB781B09FB73FB78BB73BB78002B9A
:1007300008D17B6858687B681B890022194601F044
:1007400085FA0AE0BB78012B07D17B6858687B6883
:100750001B890122194601F079FA7B68586B7B6886
:10076000198FFB7B03F00103DBB21A4601F06EFA2E
:100770007B68D86B7B68B3F84010FB7B5B08DBB20F
:1007800003F00103DBB21A4601F060FA7B68586C93
:100790007B68B3F84810FB7B9B08DBB203F00103D6
:1007A000DBB21A4601F052FA7B68D86C7B68B3F86A
:1007B0005010FB7BDB08DBB203F00103DBB21A460F
:1007C00001F044FA7B68D8687B681B8A00221946CE
:1007D00001F03CFA0120FFF7E5FE7B68D8687B68F2
:1007E0001B8A0122194601F031FA0120FFF7DAFED7
:1007F0007B68D8687B681B8A0022194601F026FABC
:100800000120FFF7CFFE7B68586B7B68198FBB7B9D
:1008100003F00103DBB21A4601F018FA7B68D86BCB
:100820007B68B3F84010BB7B5B08DBB203F00103CD
:10083000DBB21A4601F00AFA7B68586C7B68B3F8A1
:100840004810BB7B9B08DBB203F00103DBB21A4606
:1008500001F0FCF97B68D86C7B68B3F85010BB7B67
:10086000DB08DBB203F00103DBB21A4601F0EEF95C
:100870007B68D8687B681B8A0022194601F0E6F97C
:100880000120FFF78FFE7B68D8687B681B8A0122F6
:10089000194601F0DBF90120FFF784FE7B68D86878
:1008A0007B681B8A0022194601F0D0F90120FFF76E
:1008B00079FE00BF1037BD4680BD80B584B000AF63
:1008C000F8607B600B46FB721346BB72FB6800222C
:1008D0001A70FB68FA7A5A70FB68BA7A9A70FB68E9
:1008E0007A685A60FB683A8B1A81FB68FA69DA60A9
:1008F000FB683A8C1A82FB687A6A5A63FB683A8D05
:100900001A87FB68FA6ADA63FB683A8EA3F840201C
:10091000FB687A6B5A64FB683A8FA3F84820FB683F
:10092000FA6BDA64FB68B7F84020A3F85020FB6844
:10093000282283F85520FB68062283F85220FB68A2
:100940000C2283F85320FB68142283F854203220B1
:10095000FFF728FE00223321F868FFF7DAFE0520B2
:10096000FFF720FE00223321F868FFF7D2FE0520B2
:10097000FFF718FE00223221F868FFF7CAFE0520B3
:10098000FFF710FEFB6893F8523000221946F86812
:10099000FFF7BFFEFB6893F8533000221946F86852
:1009A000FFF7B7FEFB6893F8543000221946F86849
:1009B000FFF7AFFEFB6893F8553000221946F86840
:1009C000FFF7A7FE00220121F868FFF7A2FE002230
:1009D0000221F868FFF79DFE00BF1037BD4680BDBD
:1009E00080B584B000AF78600B46FB701346BB70D7
:1009F0000023FB731D4BBB607B685B78FA789A42DF
:100A000003D37B685B78013BFB707B689B78BA788B
:100A10009A4203D37B689B78013BBB70BB78103351
:100A20003B4413F8082CFB781344FB737B681B785A
:100A3000102B09D1FB7B63F07F03DBB20022194648
:100A40007868FFF7BCFD0CE07B681B78002B08D1B1
:100A5000FB7B63F07F03DBB2002219467868FFF767
:100A600058FE00BF1037BD4680BD00BF0040145483
:100A700080B582B000AF78600B46FB707B681B7856
:100A8000102B06D1FB78012219467868FFF797FDF5
:100A900009E07B681B78002B05D1FB780122194601
:100AA0007868FFF736FE00BF0837BD4680BD80B5C9
:100AB00082B000AF7860396007E03B685A1C3A604A
:100AC0001B7819467868FFF7D3FF3B681B78002B2B
:100AD000F3D100BF00BF0837BD4680BD80B582B0EE
:100AE00000AF78607B681B78102B05D100220121B4
:100AF0007868FFF764FD08E07B681B78002B04D161
:100B0000002201217868FFF704FE0520FFF74AFD67
:100B100000BF0837BD4680BD80B582B000AF7860A9
:100B20007B6893F8533043F00203DAB27B6883F8B2
:100B300053207B681B78102B08D17B6893F85330C7
:100B4000002219467868FFF73AFD0BE07B681B78B6
:100B5000002B07D17B6893F8533000221946786840
:100B6000FFF7D7FD00BF0837BD4680BD80B584B014
:100B700000AF0346FB800122F0212C4801F066F80B
:100B800000221021294801F061F8FB881946274806
:100B900001F044F80346002B01D10123FB60012240
:100BA0001021224801F052F8002220211F4801F0B4
:100BB0004DF8FB8819461D4801F030F80346002B1C
:100BC00001D10223FB6001222021184801F03EF8E8
:100BD00000224021154801F039F8FB8819461348D6
:100BE00001F01CF80346002B01D10323FB60012216
:100BF00040210E4801F02AF8002280210B4801F024
:100C000025F8FB881946094801F008F80346002B2F
:100C100001D10423FB600022F021044801F016F802
:100C2000FB6818461037BD4680BD00BF0004024077
:100C300090B587B000AF294B3C1D0FCB84E80F0067
:100C40000121274800F0EAFF0346002B0AD10120CA
:100C5000FFF78CFF78617B69013B18333B4413F845
:100C6000143C36E002211E4800F0D8FF0346002B5A
:100C70000AD10220FFF77AFF78617B69013B1833C4
:100C80003B4413F8103C24E00421154800F0C6FF53
:100C90000346002B0AD10420FFF768FF78617B69C7
:100CA000013B18333B4413F80C3C12E008210C487C
:100CB00000F0B4FF0346002B0AD10820FFF756FFCF
:100CC00078617B69013B18333B4413F8083C00E032
:100CD000002318461C37BD4690BD00BFE036000813
:100CE0000004024080B584B000AF0346FB71FB797D
:100CF000002B1FD0FB79782B18D11048FFF7EEFEA0
:100D00000023FB6006E020210C48FFF7B1FEFB68E2
:100D10000133FB600A4B1B68FA689A42F3DB074811
:100D2000FFF7DCFE064B00221A6003E02A2103488D
:100D3000FFF79EFE00BF1037BD4680BD2401002096
:100D40009801002080B582B000AF03463960FB7186
:100D5000FB79002B00F0A380FB792F2B0CD9FB79BA
:100D6000392B09D84F4B1B684F49FA79CA544D4B60
:100D70001B6801334B4A1360FB793D2B40F08F8099
:100D80004A494948FFF72CFA0346002B4CD1484802
:100D9000FFF7A4FE002200214548FFF721FE454948
:100DA0004348FFF784FE3F4B00221A6001220021D6
:100DB0003F48FFF715FE40493D48FFF778FE4FF4E6
:100DC000FA7000F071FC3A48FFF788FE3B4938485A
:100DD000FFF76DFE4FF4FA6000F066FC3448FFF751
:100DE0007DFE002200213248FFF7FAFD34493048E9
:100DF000FFF75DFEC82000F057FC2D48FFF76EFEA0
:100E0000002200212A48FFF7EBFD2E492848FFF772
:100E10004EFE012200212648FFF7E2FD2448FFF79D
:100E20007BFE00233B603AE03B681B685A1C3B6832
:100E30001A601F48FFF752FE23491D48FFF737FE8F
:100E40003B681B681A462149214801F0CFFF204921
:100E50001748FFF72CFE3B681B68052B08D10122C1
:100E600000211348FFF7BCFD1A491148FFF71FFE88
:100E70000C4B00221A604FF4967000F015FC3B6892
:100E80001B68042B0BDC0A48FFF728FE12490848B0
:100E9000FFF70DFE012200210548FFF7A1FD0837ED
:100EA000BD4680BD980100208C010020000000207C
:100EB00024010020F0360008FC3600080437000842
:100EC0001437000820370008303700083C37000886
:100ED0007C010020443700085437000880B582B0F8
:100EE00000AF78604FF40051034800F0C8FE00BF27
:100EF0000837BD4680BD00BF0008024080B58EB0F7
:100F00000CAF00233B6000F05DFB00F0C5F800F083
:100F1000BDF900F021F900F06BF9564801F03EFBF5
:100F200001220F21544800F091FE0022F021524886
:100F300000F08CFE4FF480630A93504B09934FF4FA
:100F4000007308934D4B07934FF4807306934B4BFC
:100F500005934FF400430493474B03934FF400630E
:100F60000293464B01934FF480530093434B02226C
:100F700010214348FFF7A1FC002200214048FFF761
:100F80002FFD40493E48FFF792FDC82000F08CFB42
:100F90003B48FFF7A3FD002200213948FFF720FD61
:100FA00039493748FFF783FD012200213448FFF714
:100FB00017FD3348FFF7B0FDFFF73AFE0346FB711C
:100FC000FB791846FFF78EFE3A46FB791146184624
:100FD000FFF7B8FE3B68052B47D14FF4FA7000F0DD
:100FE00063FB01224FF48051284800F02FFE244873
:100FF000FFF774FD002200212148FFF7F1FC24498E
:101000001F48FFF754FD012200211D48FFF7E8FCAF
:1010100020491B48FFF74BFD4FF4FA6000F044FBFA
:101020001748FFF75BFD002200211548FFF7D8FCA9
:1010300014491348FFF73BFDC82000F035FB10486A
:10104000FFF74CFD002200210D48FFF7C9FC0E49B7
:101050000B48FFF72CFD012200210948FFF7C0FCD7
:101060000748FFF759FD00233B60962000F01CFB6A
:10107000A2E700BF940000200004024000000240EC
:10108000240100201437000820370008000802401F
:10109000643700087437000880B594B000AF07F1DA
:1010A000200330220021184601F098FE07F10C03BE
:1010B00000221A605A609A60DA601A610023BB60ED
:1010C000234B1B6C224A43F080531364204B1B6C50
:1010D00003F08053BB60BB6800237B601D4B1B6823
:1010E00023F440431B4A43F400431360194B1B682D
:1010F00003F440437B607B6802233B620123FB6275
:1011000010233B630023BB6307F12003184600F064
:10111000D1FD0346002B01D000F044F90F23FB6002
:1011200000233B6100237B610023BB610023FB6143
:1011300007F10C030021184601F034F80346002B98
:1011400001D000F02FF900BF5037BD4680BD00BF71
:10115000003802400070004080B586B000AF07F153
:10116000080300221A605A609A60DA603B46002247
:101170001A605A601D4B4FF080421A601B4B4FF4AF
:101180007A525A60194B00229A60184B9522DA6005
:10119000164B00221A61154B80229A61134801F008
:1011A000ADF90346002B01D000F0FCF84FF480535A
:1011B000BB6007F1080319460C4801F059FB0346D0
:1011C000002B01D000F0EEF800233B6000237B6091
:1011D0003B461946054801F055FD0346002B01D05A
:1011E00000F0E0F800BF1837BD4680BD9400002035
:1011F00080B586B000AF07F1080300221A605A607C
:101200009A60DA603B4600221A605A601D4B1E4A03
:101210001A601C4B4FF47A525A601A4B00229A60A3
:10122000184BC722DA60174B00221A61154B802237
:101230009A61144801F062F90346002B01D000F0D6
:10124000B1F84FF48053BB6007F1080319460D480D
:1012500001F00EFB0346002B01D000F0A3F80023A1
:101260003B6000237B603B461946064801F00AFDBF
:101270000346002B01D000F095F800BF1837BD469B
:1012800080BD00BFDC0000200008004080B588B0B1
:1012900000AF07F10C0300221A605A609A60DA600E
:1012A0001A610023BB603B4B1B6B3A4A43F00403BB
:1012B0001363384B1B6B03F00403BB60BB68002354
:1012C0007B60344B1B6B334A43F002031363314B97
:1012D0001B6B03F002037B607B6800233B602D4B9C
:1012E0001B6B2C4A43F0010313632A4B1B6B03F067
:1012F00001033B603B6800224FF44051264800F058
:10130000A5FC002248F2F001244800F09FFC0022D6
:101310004FF4F851224800F099FC4FF44053FB6021
:1013200001233B6100237B610023BB6107F10C03B8
:101330001946194800F0EEFA0F23FB6000233B61C9
:1013400001237B6107F10C031946144800F0E2FA0F
:1013500048F2F003FB6001233B6100237B61002323
:10136000BB6107F10C0319460C4800F0D3FA4FF4A7
:10137000F853FB6001233B6100237B610023BB61C9
:1013800007F10C031946064800F0C4FA00BF2037E5
:10139000BD4680BD00380240000802400004024003
:1013A0000000024080B400AF72B600BFFEE700004C
:1013B00080B483B000AF00237B60104B5B6C0F4A9E
:1013C00043F4804353640D4B5B6C03F480437B60B8
:1013D0007B6800233B60094B1B6C084A43F0805339
:1013E0001364064B1B6C03F080533B603B6800BFEB
:1013F0000C37BD465DF8047B704700BF00380240E3
:1014000080B584B000AF78607B681B68B3F1804F13
:1014100016D10023FB60164B1B6C154A43F00103E9
:101420001364134B1B6C03F00103FB60FB68002289
:1014300000211C2000F037FA1C2000F050FA12E0C6
:101440007B681B680B4A93420DD10023BB60084B9D
:101450001B6C074A43F004031364054B1B6C03F039
:101460000403BB60BB6800BF1037BD4680BD00BF32
:10147000003802400008004080B400AFFEE780B4AE
:1014800000AFFEE780B400AFFEE780B400AFFEE738
:1014900080B400AFFEE780B400AF00BFBD465DF88A
:1014A000047B704780B400AF00BFBD465DF8047B8D
:1014B000704780B400AF00BFBD465DF8047B704745
:1014C00080B500AF00F0D0F800BF80BD80B500AFA0
:1014D000024801F0C5F800BF80BD00BF94000020A5
:1014E00080B586B000AF7860144A154BD31A7B6183
:1014F0007B693B61134B1B68002B02D1114B124AD5
:101500001A60104B1A687B6813443A699A4207D2F2
:1015100001F03AFC03460C221A604FF0FF3309E059
:10152000084B1B68FB60074B1A687B681344054A2D
:101530001360FB6818461837BD4680BD0080012047
:10154000000400009C010020B801002080B400AF1E
:10155000064BD3F88830054A43F47003C2F888304C
:1015600000BFBD465DF8047B704700BF00ED00E0A2
:10157000DFF834D00D480E490E4A002302E0D4585B
:10158000C4500433C4188C42F9D30B4A0B4C0023CB
:1015900001E013600432A242FBD3FFF7D7FF01F052
:1015A000F9FBFFF7ABFC7047008001200000002032
:1015B00078000020D437000878000020B401002013
:1015C000FEE7000080B500AF0E4B1B680D4A43F4E8
:1015D000007313600B4B1B680A4A43F4806313606B
:1015E000084B1B68074A43F480731360032000F024
:1015F0004FF90F2000F008F8FFF7DAFE0023184635
:1016000080BD00BF003C024080B582B000AF786072
:10161000124B1A68124B1B7819464FF47A73B3FBBE
:10162000F1F3B2FBF3F3184600F067F90346002B21
:1016300001D001230EE07B680F2B0AD800227968C5
:101640004FF0FF3000F02FF9064A7B68136000234B
:1016500000E0012318460837BD4680BD0800002081
:10166000100000200C00002080B400AF064B1B7857
:101670001A46064B1B681344044A136000BFBD465C
:101680005DF8047B704700BF10000020A00100201F
:1016900080B400AF034B1B681846BD465DF8047B61
:1016A000704700BFA001002080B584B000AF786013
:1016B000FFF7EEFFB8607B68FB60FB68B3F1FF3FAC
:1016C00005D00A4B1B781A46FB681344FB6000BF29
:1016D000FFF7DEFF0246BB68D31AFA689A42F7D8D2
:1016E00000BF00BF1037BD4680BD00BF1000002006
:1016F00080B485B000AF78607B6803F00703FB60BF
:101700000C4BDB68BB60BA684FF6FF031340BB604D
:10171000FB681A02BB68134343F0BF6343F4003312
:10172000BB60044ABB68D36000BF1437BD465DF898
:10173000047B704700ED00E080B400AF044BDB6831
:101740001B0A03F007031846BD465DF8047B70478B
:1017500000ED00E080B483B000AF0346FB7197F961
:101760000730002B0BDBFB7903F01F02074997F9C9
:1017700007305B09012000FA02F241F8232000BF84
:101780000C37BD465DF8047B704700BF00E100E008
:1017900080B483B000AF03463960FB7197F907301E
:1017A000002B0ADB3B68DAB20C4997F907301201CB
:1017B000D2B20B4483F800230AE03B68DAB208494E
:1017C000FB7903F00F03043B1201D2B20B441A76EB
:1017D00000BF0C37BD465DF8047B704700E100E0B8
:1017E00000ED00E080B489B000AFF860B9607A60C5
:1017F000FB6803F00703FB61FB69C3F10703042BDC
:1018000028BF0423BB61FB690433062B02D9FB69A3
:10181000033B00E000237B614FF0FF32BB6902FA1B
:1018200003F3DA43BB681A407B699A404FF0FF31FB
:101830007B6901FA03F3D9437B680B4013431846D5
:101840002437BD465DF8047B7047000080B582B048
:1018500000AF78607B68013BB3F1807F01D3012347
:101860000FE00A4A7B68013B53600F214FF0FF30C5
:10187000FFF78EFF054B00229A60044B07221A6087
:10188000002318460837BD4680BD00BF10E000E0C9
:1018900080B582B000AF78607868FFF729FF00BF9D
:1018A0000837BD4680BD80B586B000AF0346B9603D
:1018B0007A60FB7300237B61FFF73EFF78617A68F3
:1018C000B9687869FFF78EFF024697F90F30114625
:1018D0001846FFF75DFF00BF1837BD4680BD80B5D5
:1018E00082B000AF0346FB7197F907301846FFF747
:1018F00031FF00BF0837BD4680BD80B582B000AF64
:1019000078607868FFF7A2FF034618460837BD469F
:1019100080BD000080B489B000AF786039600023DA
:101920007B6100233B610023BB610023FB6159E124
:101930000122FB6902FA03F37B613B681B687A6949
:1019400013403B613A697B699A4240F048813B68A9
:101950005B6803F00303012B05D03B685B6803F071
:101960000303022B30D17B689B68BB61FB695B0082
:10197000032202FA03F3DB43BA691340BB613B68FD
:10198000DA68FB695B0002FA03F3BA691343BB61CF
:101990007B68BA699A607B685B68BB610122FB69FE
:1019A00002FA03F3DB43BA691340BB613B685B682F
:1019B0001B0903F00102FB6902FA03F3BA6913433E
:1019C000BB617B68BA695A603B685B6803F00303DC
:1019D000032B17D07B68DB68BB61FB695B000322CC
:1019E00002FA03F3DB43BA691340BB613B689A68B0
:1019F000FB695B0002FA03F3BA691343BB617B68BE
:101A0000BA69DA603B685B6803F00303022B23D1F9
:101A1000FB69DA087B68083253F82230BB61FB6946
:101A200003F007039B000F2202FA03F3DB43BA69BA
:101A30001340BB613B681A69FB6903F007039B0015
:101A400002FA03F3BA691343BB61FB69DA087B68E6
:101A50000832B96943F822107B681B68BB61FB69D7
:101A60005B00032202FA03F3DB43BA691340BB6154
:101A70003B685B6803F00302FB695B0002FA03F357
:101A8000BA691343BB617B68BA691A603B685B68DB
:101A900003F44033002B00F0A2800023FB60574B7F
:101AA0005B6C564A43F480435364544B5B6C03F4C1
:101AB0008043FB60FB68524AFB699B08023352F883
:101AC0002330BB61FB6903F003039B000F2202FA82
:101AD00003F3DB43BA691340BB617B68494A934215
:101AE00019D07B68484A934213D07B68474A934297
:101AF0000DD07B68464A934207D07B68454A9342A3
:101B000001D1042308E0072306E0032304E00223B5
:101B100002E0012300E00023FA6902F003029200D0
:101B20009340BA691343BB613549FB699B08023393
:101B3000BA6941F82320384B9B68BB613B69DB43A2
:101B4000BA691340BB613B685B6803F48013002BE8
:101B500003D0BA693B691343BB612F4ABB699360E9
:101B60002D4BDB68BB613B69DB43BA691340BB614A
:101B70003B685B6803F40013002B03D0BA693B6930
:101B80001343BB61244ABB69D360234B5B68BB61D1
:101B90003B69DB43BA691340BB613B685B6803F494
:101BA0000033002B03D0BA693B691343BB611A4A67
:101BB000BB695360184B1B68BB613B69DB43BA6967
:101BC0001340BB613B685B6803F48033002B03D098
:101BD000BA693B691343BB610F4ABB691360FB6978
:101BE0000133FB61FB690F2B7FF6A2AE00BF00BF84
:101BF0002437BD465DF8047B704700BF00380240C3
:101C00000038014000000240000402400008024089
:101C1000000C024000100240003C014080B485B03E
:101C200000AF78600B467B807B681A697B88134025
:101C3000002B02D00123FB7301E00023FB73FB7B2D
:101C400018461437BD465DF8047B704780B483B0F6
:101C500000AF78600B467B8013467B707B78002B4F
:101C600003D07A887B689A6103E07B881A047B68DA
:101C70009A6100BF0C37BD465DF8047B704780B4A5
:101C800085B000AF78600B467B807B685B69FB604A
:101C90007A88FB6813401A04FB68D9437B880B40A1
:101CA0001A437B689A6100BF1437BD465DF8047B18
:101CB0007047000080B586B000AF78607B68002B6D
:101CC00001D1012367E27B681B6803F00103002B4D
:101CD00075D0884B9B6803F00C03042B0CD0854B0C
:101CE0009B6803F00C03082B12D1824B5B6803F452
:101CF0008003B3F5800F0BD17E4B1B6803F40033D8
:101D0000002B5BD07B685B68002B57D1012342E23C
:101D10007B685B68B3F5803F06D1764B1B68754ADC
:101D200043F4803313601DE07B685B68B3F5A02F3C
:101D30000CD1704B1B686F4A43F4802313606D4BCA
:101D40001B686C4A43F4803313600BE0694B1B68DB
:101D5000684A23F480331360664B1B68654A23F49A
:101D6000802313607B685B68002B13D0FFF790FC27
:101D7000386108E0FFF78CFC02463B69D31A642BFC
:101D800001D9032307E25B4B1B6803F40033002BEC
:101D9000F0D014E0FFF77CFC386108E0FFF778FC36
:101DA00002463B69D31A642B01D90323F3E1514B5B
:101DB0001B6803F40033002BF0D100E000BF7B6808
:101DC0001B6803F00203002B63D04A4B9B6803F0AF
:101DD0000C03002B0BD0474B9B6803F00C03082B24
:101DE0001CD1444B5B6803F48003002B16D1414B9C
:101DF0001B6803F00203002B05D07B68DB68012B16
:101E000001D00123C7E13B4B1B6823F0F8027B683C
:101E10001B69DB00374913430B603AE07B68DB68E2
:101E2000002B20D0344B01221A60FFF731FC3861BF
:101E300008E0FFF72DFC02463B69D31A022B01D9BB
:101E40000323A8E12B4B1B6803F00203002BF0D007
:101E5000284B1B6823F0F8027B681B69DB002549CF
:101E600013430B6015E0244B00221A60FFF710FCAF
:101E7000386108E0FFF70CFC02463B69D31A022BDD
:101E800001D9032387E11B4B1B6803F00203002BDE
:101E9000F0D17B681B6803F00803002B36D07B6809
:101EA0005B69002B16D0154B01221A60FFF7F0FB7F
:101EB000386108E0FFF7ECFB02463B69D31A022BBE
:101EC00001D9032367E10B4B5B6F03F00203002B87
:101ED000F0D01BE0094B00221A60FFF7D9FB3861F4
:101EE0000EE0FFF7D5FB02463B69D31A022B07D958
:101EF000032350E10038024000004742800E474271
:101F0000884B5B6F03F00203002BEAD17B681B68F0
:101F100003F00403002B00F097800023FB75814B36
:101F20001B6C03F08053002B0FD10023BB607D4B53
:101F30001B6C7C4A43F0805313647A4B1B6C03F098
:101F40008053BB60BB680123FB75774B1B6803F4B0
:101F50008073002B18D1744B1B68734A43F4807351
:101F60001360FFF795FB386108E0FFF791FB02462D
:101F70003B69D31A022B01D903230CE16A4B1B687E
:101F800003F48073002BF0D07B689B68012B06D193
:101F9000644B1B6F634A43F0010313671CE07B68CB
:101FA0009B68052B0CD15F4B1B6F5E4A43F004030B
:101FB00013675C4B1B6F5B4A43F0010313670BE035
:101FC000584B1B6F574A23F001031367554B1B6F88
:101FD000544A23F0040313677B689B68002B15D0D9
:101FE000FFF756FB38610AE0FFF752FB02463B69F8
:101FF000D31A41F28832934201D90323CBE0494BF3
:102000001B6F03F00203002BEED014E0FFF740FB40
:1020100038610AE0FFF73CFB02463B69D31A41F204
:102020008832934201D90323B5E03E4B1B6F03F086
:102030000203002BEED1FB7D012B05D1394B1B6C2C
:10204000384A23F0805313647B689B69002B00F0AF
:10205000A180344B9B6803F00C03082B5CD07B6899
:102060009B69022B41D1314B00221A60FFF710FB14
:10207000386108E0FFF70CFB02463B69D31A022BDC
:1020800001D9032387E0274B1B6803F00073002B63
:10209000F0D17B68DA697B681B6A1A437B685B6AEC
:1020A0009B011A437B689B6A5B08013B1B041A4334
:1020B0007B68DB6A1B061B4913434B601B4B0122E9
:1020C0001A60FFF7E5FA386108E0FFF7E1FA024627
:1020D0003B69D31A022B01D903235CE0114B1B6827
:1020E00003F00073002BF0D054E0104B00221A6074
:1020F000FFF7CEFA386108E0FFF7CAFA02463B69FB
:10210000D31A022B01D9032345E0064B1B6803F0C9
:102110000073002BF0D13DE07B689B69012B07D158
:10212000012338E000380240007000406000474260
:102130001B4B5B68FB607B689B69012B28D0FB68AD
:1021400003F480027B68DB699A4221D1FB6803F0CB
:102150003F027B681B6A9A421AD1FA6847F6C0733D
:1021600013407A68526A9201934211D1FB6803F4DA
:1021700040327B689B6A5B08013B1B049A4207D193
:10218000FB6803F070627B68DB6A1B069A4201D031
:10219000012300E0002318461837BD4680BD00BF6C
:1021A0000038024080B584B000AF786039607B6849
:1021B000002B01D10123CCE0684B1B6803F007031F
:1021C0003A689A420CD9654B3A68D2B21A70634B9E
:1021D0001B6803F007033A689A4201D00123B8E074
:1021E0007B681B6803F00203002B20D07B681B6810
:1021F00003F00403002B05D0594B9B68584A43F465
:10220000E05393607B681B6803F00803002B05D044
:10221000534B9B68524A43F460439360504B9B6816
:1022200023F0F0027B689B684D4913438B607B6809
:102230001B6803F00103002B44D07B685B68012B13
:1022400007D1474B1B6803F40033002B19D101233E
:102250007FE07B685B68022B03D07B685B68032BA5
:1022600007D13F4B1B6803F00073002B09D10123FA
:102270006FE03B4B1B6803F00203002B01D10123ED
:1022800067E0374B9B6823F003027B685B68344947
:1022900013438B60FFF7FCF9F8600AE0FFF7F8F9E9
:1022A0000246FB68D31A41F28832934201D90323D4
:1022B0004FE02B4B9B6803F00C027B685B689B0034
:1022C0009A42EBD1254B1B6803F007033A689A4208
:1022D0000CD2224B3A68D2B21A70204B1B6803F022
:1022E00007033A689A4201D0012332E07B681B68F9
:1022F00003F00403002B08D0194B9B6823F4E05231
:102300007B68DB68164913438B607B681B6803F0AE
:102310000803002B09D0124B9B6823F460427B68B2
:102320001B69DB000E4913438B6000F021F8024665
:102330000B4B9B681B0903F00F030A49CB5C22FA85
:1023400003F3094A1360094B1B681846FFF75CF951
:10235000002318461037BD4680BD00BF003C024038
:102360000038024080370008080000200C000020E0
:102370002DE9B04F90B000AF00237B630023FB63D7
:1023800000233B630023BB63594B9B6803F00C03A2
:10239000082B0DD0082B00F2A180002B02D0042BBB
:1023A00003D09BE0534BBB639BE0534BBB6398E074
:1023B0004F4B5B6803F03F037B634D4B5B6803F45B
:1023C0008003002B28D04A4B5B689B0900223B62AC
:1023D0007A623B6AC3F308000021474B03FB01F21A
:1023E000002300FB03F31344434AA0FB0212FA62EA
:1023F0000A46BA62FA6A1344FB627B6B0022BB6135
:10240000FA61D7E90623D7E90A01FDF749FF024639
:102410000B461346FB6353E0354B5B689B09002278
:102420003B617A613B69C3F3080A4FF0000B5246E7
:102430005B464FF000004FF00001590141EAD261C4
:10244000500102460B46B2EB0A0863EB0B094FF052
:1024500000024FF000034FEA891343EA98634FEA02
:102460008812B2EB080463EB09054FF000024FF04D
:102470000003EB0043EA5473E20014461D4614EBDC
:102480000A033B6045EB0B037B604FF000024FF00B
:102490000003D7E9004529468B02214643EA9153C0
:1024A00021468A02104619467B6B0022BB60FA6007
:1024B000D7E90223FDF7F4FE02460B461346FB6301
:1024C0000B4B5B681B0C03F0030301335B003B63A6
:1024D000FA6B3B6BB2FBF3F3BB6302E0054BBB63F0
:1024E00000BFBB6B18464037BD46BDE8B08F00BF8C
:1024F000003802400024F40040787D0180B582B0AD
:1025000000AF78607B68002B01D1012341E07B683C
:1025100093F83D30DBB2002B06D17B68002283F8B4
:102520003C207868FEF76CFF7B68022283F83D2030
:102530007B681A687B6804331946104600F088FAF5
:102540007B68012283F846207B68012283F83E20C5
:102550007B68012283F83F207B68012283F84020BA
:102560007B68012283F841207B68012283F84220A6
:102570007B68012283F843207B68012283F8442092
:102580007B68012283F845207B68012283F83D2087
:10259000002318460837BD4680BD000080B485B0D2
:1025A00000AF78607B6893F83D30DBB2012B01D03F
:1025B000012344E07B68022283F83D207B681B688E
:1025C000DA687B681B6842F00102DA607B681B688E
:1025D0001E4A934218D07B681B68B3F1804F13D01A
:1025E0007B681B681A4A93420ED07B681B68194AA5
:1025F000934209D07B681B68174A934204D07B68DA
:102600001B68164A934211D17B681B689B6803F0D4
:102610000703FB60FB68062B10D07B681B681A68F9
:102620007B681B6842F001021A6007E07B681B6848
:102630001A687B681B6842F001021A600023184682
:102640001437BD465DF8047B704700BF00000140B1
:102650000004004000080040000C00400040014021
:1026600080B582B000AF78607B681B681B6903F09F
:102670000203022B22D17B681B68DB6803F0020394
:10268000022B1BD17B681B686FF002021A617B680A
:1026900001221A777B681B689B6903F00303002BF8
:1026A00003D0786800F0B5F905E0786800F0A7F984
:1026B000786800F0B8F97B6800221A777B681B689D
:1026C0001B6903F00403042B22D17B681B68DB68C1
:1026D00003F00403042B1BD17B681B686FF004021A
:1026E0001A617B6802221A777B681B689B6903F476
:1026F0004073002B03D0786800F08BF905E0786810
:1027000000F07DF9786800F08EF97B6800221A7776
:102710007B681B681B6903F00803082B22D17B68C8
:102720001B68DB6803F00803082B1BD17B681B6860
:102730006FF008021A617B6804221A777B681B68B5
:10274000DB6903F00303002B03D0786800F061F924
:1027500005E0786800F053F9786800F064F97B6868
:1027600000221A777B681B681B6903F01003102B8B
:1027700022D17B681B68DB6803F01003102B1BD190
:102780007B681B686FF010021A617B6808221A7759
:102790007B681B68DB6903F44073002B03D0786807
:1027A00000F037F905E0786800F029F9786800F062
:1027B0003AF97B6800221A777B681B681B6903F073
:1027C0000103012B0ED17B681B68DB6803F001035A
:1027D000012B07D17B681B686FF001021A617868D2
:1027E000FEF77CFB7B681B681B6903F08003802B72
:1027F0000ED17B681B68DB6803F08003802B07D158
:102800007B681B686FF080021A61786800F0B2FA8A
:102810007B681B681B6903F04003402B0ED17B686B
:102820001B68DB6803F04003402B07D17B681B6803
:102830006FF040021A61786800F0FFF87B681B684F
:102840001B6903F02003202B0ED17B681B68DB681B
:1028500003F02003202B07D17B681B686FF0200258
:102860001A61786800F07CFA00BF0837BD4680BD69
:1028700080B584B000AF786039600023FB737B685B
:1028800093F83C30012B01D10223B4E07B68012294
:1028900083F83C207B68022283F83D207B681B681C
:1028A0009B68BB60BB6823F07703BB60BB6823F405
:1028B0007F43BB607B681B68BA689A603B681B6893
:1028C000B3F5005F3ED0B3F5005F00F28780B3F54B
:1028D000805F00F08680B3F5805F7FD8702B1AD0C0
:1028E000702B7BD8602B50D0602B77D8502B3CD0EE
:1028F000502B73D8402B58D0402B6FD8302B64D03E
:10290000302B6BD8202B60D0202B67D8002B5CD0CD
:10291000102B5AD062E07B6818683B6899683B6866
:102920005A683B68DB6800F08DF97B681B689B6820
:10293000BB60BB6843F07703BB607B681B68BA6809
:102940009A604FE07B6818683B6899683B685A68F2
:102950003B68DB6800F076F97B681B689A687B68E7
:102960001B6842F480429A603CE07B6818683B68D0
:1029700059683B68DB681A4600F0EAF87B681B6818
:102980005021184600F043F92CE07B6818683B683A
:1029900059683B68DB681A4600F009F97B681B68D8
:1029A0006021184600F033F91CE07B6818683B682A
:1029B00059683B68DB681A4600F0CAF87B681B68F8
:1029C0004021184600F023F90CE07B681A683B6848
:1029D0001B681946104600F01AF903E00123FB7347
:1029E00000E000BF7B68012283F83D207B68002265
:1029F00083F83C20FB7B18461037BD4680BD80B471
:102A000083B000AF786000BF0C37BD465DF8047B33
:102A1000704780B483B000AF786000BF0C37BD460C
:102A20005DF8047B704780B483B000AF786000BF6E
:102A30000C37BD465DF8047B704780B483B000AFAF
:102A4000786000BF0C37BD465DF8047B704700001E
:102A500080B485B000AF786039607B681B68FB602C
:102A60007B68344A93420FD07B68B3F1804F0BD020
:102A70007B68314A934207D07B68304A934203D047
:102A80007B682F4A934208D1FB6823F07003FB60F8
:102A90003B685B68FA681343FB607B68254A934296
:102AA0001BD07B68B3F1804F17D07B68224A9342DA
:102AB00013D07B68214A93420FD07B68204A93420F
:102AC0000BD07B681F4A934207D07B681E4A934213
:102AD00003D07B681D4A934208D1FB6823F44073FE
:102AE000FB603B68DB68FA681343FB60FB6823F01C
:102AF00080023B685B691343FB607B68FA681A607D
:102B00003B689A687B68DA623B681A687B689A62FD
:102B10007B68084A934203D13B681A697B681A6351
:102B20007B6801225A6100BF1437BD465DF8047B03
:102B3000704700BF00000140000400400008004052
:102B4000000C0040004001400044014000480140AA
:102B500080B487B000AFF860B9607A60FB681B6A28
:102B60007B61FB681B6A23F00102FB681A62FB6849
:102B70009B693B613B6923F0F0033B617B681B0170
:102B80003A6913433B617B6923F00A037B617A69ED
:102B9000BB6813437B61FB683A699A61FB687A6999
:102BA0001A6200BF1C37BD465DF8047B704780B4D5
:102BB00087B000AFF860B9607A60FB681B6A23F0E9
:102BC0001002FB681A62FB689B697B61FB681B6AE9
:102BD0003B617B6923F470437B617B681B037A69EB
:102BE00013437B613B6923F0A0033B61BB681B017E
:102BF0003A6913433B61FB687A699A61FB683A69F9
:102C00001A6200BF1C37BD465DF8047B704780B474
:102C100085B000AF786039607B689B68FB60FB68BB
:102C200023F07003FB603A68FB68134343F007032B
:102C3000FB607B68FA689A6000BF1437BD465DF898
:102C4000047B704780B487B000AFF860B9607A60E9
:102C50003B60FB689B687B617B6923F47F437B61FE
:102C60003B681A027B681A43BB6813437A691343B3
:102C70007B61FB687A699A6000BF1C37BD465DF8CE
:102C8000047B704780B485B000AF786039607B68A2
:102C900093F83C30012B01D1022350E07B680122E4
:102CA00083F83C207B68022283F83D207B681B6808
:102CB0005B68FB607B681B689B68BB60FB6823F0FC
:102CC0007003FB603B681B68FA681343FB607B681A
:102CD0001B68FA685A607B681B681C4A934218D0CC
:102CE0007B681B68B3F1804F13D07B681B68184A60
:102CF00093420ED07B681B68164A934209D07B68CA
:102D00001B68154A934204D07B681B68134A9342A0
:102D10000CD1BB6823F08003BB603B685B68BA687A
:102D20001343BB607B681B68BA689A607B680122AA
:102D300083F83D207B68002283F83C20002318465E
:102D40001437BD465DF8047B704700BF00000140AA
:102D50000004004000080040000C0040004001401A
:102D600080B483B000AF786000BF0C37BD465DF81B
:102D7000047B704780B483B000AF786000BF0C372D
:102D8000BD465DF8047B7047014B1868704700BF73
:102D90001400002070B50D4D0D4C641BA4100026CE
:102DA000A64209D10B4D0C4C00F08EFC641BA41004
:102DB0000026A64205D170BD55F8043B9847013660
:102DC000EEE755F8043B98470136F2E7CC370008A8
:102DD000CC370008CC370008D0370008024403463F
:102DE000934200D1704703F8011BF9E70EB400B518
:102DF0009CB01DAB029006906FF00041094807910E
:102E00000491094953F8042B05910068019302A924
:102E100000F068F8029B00221A701CB05DF804EB09
:102E200003B07047140000200802FFFF2DE9F047AF
:102E30008E689E4282460C4690461F4638D88A8944
:102E400012F4906F32D025680969A5EB0109656914
:102E500005EB450505EBD57501334B446D109D42DF
:102E600038BF1D46530531D5294600F063FB0646A1
:102E700050B90C23CAF80030A38943F04003A38162
:102E80004FF0FF30BDE8F08721694A4600F0BEFAF6
:102E9000A38923F4906343F08003A38126616561D5
:102EA0004E44A5EB09052660A5603E46BE4200D90A
:102EB0003E4620683246414600F0B6FAA3689B1BA6
:102EC000A3602368334423600020DBE72A4600F038
:102ED000A5FB06460028E1D12169504600F0BEFA64
:102EE000C7E700002DE9F04F98468B891B069DB07F
:102EF00007460D4614460ED50B6963B9402100F014
:102F000019FB2860286120B90C233B604FF0FF308B
:102F1000D1E040236B610023099320238DF82930F1
:102F2000CDF80C803023DFF8A8818DF82A304FF0DF
:102F3000010923469A4613F8012B0AB1252AF9D133
:102F4000BAEB040B0BD05B46224629463846FFF706
:102F50006DFF013000F0AA80099A5A4409929AF84C
:102F60000030002B00F0A28000234FF0FF32CDE9AB
:102F700005230AF1010A049307938DF853301A933D
:102F80005446052214F8011B5148FDF739F9049AFB
:102F9000D8B9D00644BF20238DF85330110744BF61
:102FA0002B238DF853309AF800302A2B15D0079A2E
:102FB000544600204FF00A0C214611F8013B303BEB
:102FC000092B4ED9B0B1079214E0A0EB080309FA1F
:102FD00003F313430493A246D2E7039B191D1B6816
:102FE0000391002BBBBF5B4242F0020207930793A1
:102FF000B8BF049223782E2B0CD163782A2B35D1BD
:10300000039B1A1D1B680392002BB8BF4FF0FF33C0
:1030100002340593DFF8C8A0217803225046FDF75B
:10302000EFF840B14023A0EB0A0003FA00F0049B44
:1030300003430134049314F8011B26488DF828102B
:103040000622FDF7DDF8002838D0234B1BBB039B7D
:10305000073323F0070308330393099B3344099391
:1030600067E70CFB02320C460120A5E70023013480
:10307000059319464FF00A0C204610F8012B303A00
:10308000092A03D9002BC5D00591C3E70CFB012108
:1030900004460123F0E703AB00932A460F4B04A933
:1030A0003846AFF30080421C0646D6D1AB895B069A
:1030B0003FF52CAF09981DB0BDE8F08F03AB00932E
:1030C0002A46064B04A9384600F07AF8EBE700BF21
:1030D000903700089A370008000000002D2E0008E5
:1030E000963700082DE9F047164699468A680B691D
:1030F000DDF820809342B8BF1346336091F8432037
:1031000007460C460AB1013333602368990642BF73
:10311000336802333360256815F0060506D104F1E3
:10312000190AE36832689B1AAB4226DC94F8432004
:10313000131E226818BF012392062BD404F1430208
:1031400049463846C04701301ED02368E5683268DA
:1031500003F00603042B08BFAD1AA36822690CBF55
:1031600025EAE57500259342C4BF9B1AED18002699
:103170001A34B5421AD1002008E0012352464946CC
:103180003846C047013003D14FF0FF30BDE8F0872B
:103190000135C6E7E1185A1C302081F8430022446B
:1031A00094F8451082F843100233C7E70123224602
:1031B00049463846C0470130E6D00136D9E700001D
:1031C0002DE9FF470F7E0C9D782F914680460C46D7
:1031D0009A4601F1430207D8622F0AD8002F00F067
:1031E000D880582F00F0A38004F1420584F8427083
:1031F0003AE0A7F16303152BF6D801A151F823F0AB
:10320000593200086D320008E9310008E931000840
:10321000E9310008E93100086D320008E9310008A1
:10322000E9310008E9310008E93100087933000884
:103230009D3200085B330008E9310008E9310008DD
:103240009B330008E93100089D320008E93100088D
:10325000E9310008633300082B681A1D1B682A60D7
:1032600004F1420584F842300123A3E02068296874
:10327000060601F104030AD50E682B60002E03DA5E
:103280002D23764284F843305E480A2319E00E6805
:103290002B6010F0400F18BF36B2EFE72B682068A4
:1032A000191D2960010601D51E6802E04606FBD5FE
:1032B0001E8854486F2F0CBF08230A23002184F86E
:1032C00043106568A560002DA2BF216821F00401AC
:1032D00021600EB9002D4DD01546B6FBF3F103FB6E
:1032E0001167C75D05F8017D3746BB420E46F4D92C
:1032F000082B0BD12368DE0708D523696168994242
:10330000DEBF302305F8013C05F1FF35521B226179
:10331000CDF800A04B4603AA21464046FFF7E2FE47
:1033200001304CD14FF0FF3004B0BDE8F087354894
:1033300081F845702968236851F8046B29601D06DF
:1033400014D5DF0744BF43F0200323601EB9236870
:1033500023F0200323601023B0E7236843F0200309
:1033600023607823284884F84530E3E7590648BFAE
:10337000B6B2E6E71546BBE72B6826686169181DFB
:10338000286035061B6801D5196002E07006FBD580
:103390001980002323611546BAE72B681A1D2A609D
:1033A0001D68626800212846FCF72AFF08B1401B0F
:1033B000606063682361002384F84330A8E72369D1
:1033C0002A4649464046D0470130ABD023689B0788
:1033D00013D4E068039B9842B8BF1846A4E70123C2
:1033E000324649464046D04701309BD00135E3681C
:1033F00003995B1AAB42F2DCEBE7002504F11906F6
:10340000F5E700BFA1370008B23700080A4491422F
:1034100000F1FF3300D1704710B511F8014B03F8EC
:10342000014F9142F9D110BD884210B501EB020461
:1034300002D98442234607D8431EA14208D011F87E
:10344000012B03F8012FF8E7024401468A4200D11C
:1034500010BD13F8014D02F8014DF7E737B500290B
:1034600044D051F8043C0190002BA1F10404B8BFF2
:10347000E41800F013F91E4A0198136833B9636029
:10348000146003B0BDE8304000F00EB9A34208D983
:10349000256861198B4201BF19685B684919216071
:1034A000EDE71A465B680BB1A342FAD911685518CB
:1034B000A5420BD1246821445418A3421160E0D1E5
:1034C0001C685B68536021441160DAE702D90C2361
:1034D0000360D6E7256861198B4204BF19685B68F1
:1034E000636004BF491921605460CAE703B030BD6E
:1034F000A401002070B50E4E0C463168054611B986
:1035000000F0BCF830602146284600F0B7F8431CB4
:103510000AD0C41C24F00304A04207D0211A284674
:1035200000F0ACF8013001D14FF0FF34204670BDFF
:10353000A80100202DE9F041CD1C25F00305083538
:103540000C2D38BF0C25002D074601DBA94205D9FB
:103550000C233B6000263046BDE8F0812E4E00F083
:103560009DF833681C4634BB29463846FFF7C2FF36
:10357000431C04464DD134682646002E40D12368B2
:103580003146384604EB030800F078F880453AD11C
:10359000216803356D1A25F0030508350C2D38BF59
:1035A0000C2529463846FFF7A5FF01302BD02368AC
:1035B0002B4423600EE02268521B1ED40B2A16D91E
:1035C0006119A342256018BF5960636808BF316064
:1035D00062514B60384604F10B0600F065F826F0A6
:1035E0000706231DF21AB6D09B1BA350B3E76268EF
:1035F000A3420CBF32605A60ECE723466468B2E72E
:1036000034467668B9E70C233B60384600F04CF846
:10361000A1E72560DEE700BFA40100202DE9F0410D
:10362000804614460E4621B9BDE8F0411146FFF729
:1036300081BF2AB9FFF712FF25462846BDE8F08171
:1036400000F038F88442074602D8B4EB500F12D885
:1036500021464046FFF76EFF05460028EDD0BC42EC
:103660002246314628BF3A46FFF7D0FE3146404653
:10367000FFF7F4FEE1E73546DFE7000038B5064D19
:103680000023044608462B60FDF72AFF431C02D1A5
:103690002B6803B1236038BDAC010020014800F065
:1036A00011B800BFB0010020014800F00CB800BF05
:1036B000B001002051F8043C181F002BBCBF0B5870
:1036C000C018704770477047F8B500BFF8BC08BC19
:1036D0009E467047F8B500BFF8BC08BC9E467047D0
:1036E0003738392F343536783132332D2A303D2B67
:1036F0004441204D4F204B484F4121004F50454EF3
:103700004544210058494E204348414F2121212161
:103710000000000057454C434F4D4521212100003A
:10372000454E5445522050415353574F52443A004E
:10373000494E434F52524543542100002044656D89
:103740003A25640043414E482042414F204D5543A5
:1037500020332100454E54455220414741494E3ABD
:1037600000000000434F204B4520444F54204E485A
:10377000415021005741524E494E4721212100001E
:103780000000000000000000010203040607080911
:10379000232D302B2000686C4C006566674546473A
:1037A00000303132333435363738394142434445BD
:1037B000460030313233343536373839616263642C
:0437C000656600003A
:0837C4000CCBFF7F01000000A7
:0437CC00C50100082B
:0437D000A10100084B
:1037D40032353132303100000024F4001000000092
:1037E400010000001800002000000000000000009C
:1037F40000000000000000000000000000000000C5
:1038040000000000000000000000000000000000B4
:1038140000000000000000000000000000000000A4
:103824000000000000000000000000000000000094
:103834000000000000000000000000000000000084
:0838440000000000000000007C
:040000050800157169
:00000001FF
